:020000040800F2
:1000000088E60020450100084D0100082F51000836
:1000100051010008530100085501000800000000CC
:100020000000000000000000000000005701000870
:100030005901000800000000B7500008B51600087C
:100040005F0100085F0100085F0100085F01000810
:100050005F0100085F010008EB2C00085F01000849
:100060005F0100085F0100085F0100085F010008F0
:100070005F0100085F0100085F0100085F010008E0
:100080005F0100085F0100085F0100085F010008D0
:100090005F0100085F0100085F0100085F010008C0
:1000A0005F0100085F0100085F0100085F010008B0
:1000B0005F0100085F0100085F0100085F010008A0
:1000C0005F0100085F0100085F0100085F01000890
:1000D0005F0100085F010008852C00085F0100082F
:1000E0005F0100085F0100085F0100085F01000870
:1000F0005F0100085F0100085F0100085F01000860
:100100005F0100085F0100085F0100085F0100084F
:10011000CF7200085F0100085F0100085F0100085E
:100120005F0100085F0100085F0100085F0100082F
:10013000DFF80CD00DF092FC00480047532E000869
:1001400088E600200648804706480047FEE7FEE7AD
:10015000FEE7FEE7FEE7FEE7FEE7FEE7FEE7FEE777
:1001600011020008310100080CB500220192009232
:100170005248016841F4803101604FF4A063016886
:1001800001F4003100910199491C0191009911B9C4
:1001900001999942F3D10168890302D501210091A7
:1001A00000E000920099012930D145490A6842F0E7
:1001B00010020A600A6822F003020A600A6842F02C
:1001C00002020A604168416041684160416841F44F
:1001D00080614160416821F47C114160416841F4D3
:1001E000E8114160016841F0807101600168890196
:1001F000FCD5416821F003014160416841F00201F2
:1002000041604168C1F381010229FAD10CBDABE71D
:1002100010B52A48016841F0010101604168294A8E
:10022000114041600168284A11400160016821F4D1
:1002300080210160416821F4FE0141604FF41F01FB
:100240008160FFF7E4FF21494FF00060086010BDB6
:1002500010B51A4A506800F00C011D4B1D480029CA
:100260000ED004290ED008290ED003605168194A17
:10027000C1F30311121D515C0268CA40026010BD37
:100280000360F3E70360F1E7516801F4701153680C
:1002900003F48033022404EB914133B153689B0390
:1002A00007D50D4B59430160E0E70B4B5943016003
:1002B000DCE7074B59430160D8E70000001002401B
:1002C000002002400000FFF8FFFFF6FE08ED00E00E
:1002D00000127A000000002000093D002A4908436E
:1002E0002A490860704770B50F23C278012601784B
:1002F000002A1ED0254A126802F4E062C2F5E062CC
:10030000120AC2F10404D3404578A54082781A400D
:100310002A43120101F1E02181F80024007800F065
:100320001F018E404009800000F1E020C0F800610C
:1003300070BD01F01F0086404809800000F1E020F8
:10034000C0F8806170BD124A114001430F48001F80
:10035000016070470D4A121D002903D01168014346
:100360001160704711688143116070474FF0E021C0
:10037000042804D0086920F0040008617047086967
:1003800040F00400086170470000FA050CED00E041
:1003900080FFFF1F10B5012000F079FDBDE810407F
:1003A000002000F074BD2049086070471E49091FF5
:1003B000086070471C498431086070471B4A1188E7
:1003C00021F46071014311807047184A118821F0AF
:1003D0007F0101431180704708B5144A2C3A10443C
:1003E00000900098016008BD08B510492C390844F8
:1003F00000900098008808BD0B489C300068C0B28F
:1004000070470A480830018841F0010101807047B7
:100410000548A0300068C0B2704704480830018821
:1004200041F002010180704704860D422C6C0040AF
:10043000384900200860091D0860091D0860091D71
:1004400008603449344814310860704730B5314A87
:1004500083790168002B2AD013688B431360111D28
:100460000B680468A3430B60017911440B680468AE
:1004700023430B60274C08342168036899432160AB
:10048000231D19680568A94319604179102905D011
:1004900011440A68006802430A6030BD216802689E
:1004A00011432160196800680143196030BD00796B
:1004B000104402688A43026030BD0021016001716E
:1004C0000C22427181717047124910310A6802434F
:1004D0000A607047014600200E4A143212680A4230
:1004E00000D0012070470B49143108607047014665
:1004F0000020084A12680A40064B14331B680B425E
:1005000002D0002A00D0012070470249143108604F
:100510007047000000040140FFFF0F0010B59C4928
:10052000884209D10121042000F09BFC0021BDE894
:100530001040042000F095BC9649884209D1012161
:10054000082000F08EFC0021BDE81040082000F0DB
:1005500088BC9149884209D10121102000F081FC1A
:100560000021BDE81040102000F07BBC8B49884280
:1005700009D10121202000F074FC0021BDE81040C9
:10058000202000F06EBC8649884209D1012140201C
:1005900000F067FC0021BDE81040402000F061BC85
:1005A0008049884209D10121802000F05AFC0021B5
:1005B000BDE81040802000F054BC7B4988420AD13D
:1005C00084150121204600F04CFC2046BDE8104077
:1005D000002100F046BC10BD10B50121084600F016
:1005E00040FC0021BDE81040012000F03ABC2DE99C
:1005F000F0410022CC7804F00F03E40601D58C789A
:1006000023430C784FF00F0714F0FF0F4FF0010C4D
:100610001CD005680CFA02F40E882640A64211D1BF
:10062000960007FA06F825EA080503FA06F848EAEC
:100630000505CE78282E02D0482E02D002E0446173
:1006400000E00461521C082AE4D305600A88FF2AEE
:100650001ED94568002202F108060CFA06F40E883D
:100660002640A64210D1960007FA06F825EA0805AA
:1006700003FA06F848EA0505CE78282E00D1446131
:10068000CE78482E00D10461521C082AE3D345607D
:10069000BDE8F0814FF6FF710180022181700421D5
:1006A000C17070470246002092680A4200D00120C3
:1006B0007047806880B2704702460020D2680A42C4
:1006C00000D001207047C06880B270470161704758
:1006D00041617047002A01D0016170474161704754
:1006E000C160704741F480328261816182618169B9
:1006F0008069704710B52D4B1A684FF68074224000
:1007000042EA00100843186010BD2949C8617047CB
:10071000F0B5264C002801DAE36900E06368C0F315
:100720000346420D120185B2C0F301579540032FD5
:1007300007D0C2020CD50322B240934343F070624B
:1007400009E023F07062636823F07063636002E085
:10075000AB4343F0706201B12A43002801DAE26141
:10076000F0BD6260F0BD10B58A07120F0F239340F1
:1007700021F003040D4921448C689C438C608B68F4
:10078000904003438B6010BD0949DC31086070471D
:1007900000080140000C014000100140001401401D
:1007A00000180140001C01400020014000000140F1
:1007B0000000204210B5E04988420AD101214C05D1
:1007C000204600F059FB2046BDE81040002100F013
:1007D00053BB01218C05204600F04EFB2046BDE8AE
:1007E0001040002100F048BB70B586B004460D46AD
:1007F000A08820F03F0601A800F0C5FA0398CF4971
:10080000B0FBF1F189B20E43A680228822F00102EA
:100810002280CB4B2A689A4209D85200B0FBF2F0F2
:1008200080B2042800D20420491C218423E0EB88F4
:10083000A3F53F46FF3E0BD002EBC20303EB0212CF
:10084000B0FBF2F080B240F48040020506D007E031
:1008500002EB4202B0FBF2F080B2F6E740F001009A
:1008600040F400404FF4967251434FF47A72B1FB5A
:10087000F2F1491C2184A083208840F001002080EF
:1008800020884FF6F5310840A9886A891143014351
:100890002180A88929890843208106B070BD41F2D2
:1008A00088310160002181804BF6FF72C280018196
:1008B00041814FF4804181817047002904D0018833
:1008C00041F0010101807047018821F001010180A0
:1008D0007047002904D0818841F40061818070470D
:1008E000818821F4006181807047002904D08188CB
:1008F00041F4805181807047818821F4805181804A
:100900007047002904D0018841F48071018070474C
:10091000018821F4807101807047002904D001888A
:1009200041F4007101807047018821F40071018059
:100930007047002904D0018841F48061018070472C
:10094000018821F4806101807047828922F0FE02D3
:1009500001F0FE01114381817047002904D0818993
:1009600041F0010181817047818921F0010181817C
:100970007047002904D0018841F040010180704790
:10098000018821F0400101807047002A03D082884D
:100990000A438280704782888A438280704701823E
:1009A0007047008AC0B27047002A02D041F00101AE
:1009B00001E001F0FE010182704708B50090009847
:1009C000084400900098008808BD002904D00188E0
:1009D00041F40041018070470188C1F30E0101809C
:1009E0007047B1F5006F04D0018821F400610180E7
:1009F0007047018841F4006101807047B1F5005FE4
:100A000004D0018821F4005101807047018841F42D
:100A1000005101807047002904D0018841F48051C1
:100A200001807047018821F4805101807047B1F541
:100A3000006F04D0018821F40061018070470188B3
:100A400041F4006101807047002904D0018841F021
:100A5000200101807047018821F02001018070474A
:100A6000008B000A7047002904D0018841F0100172
:100A700001807047018821F0100101807047002932
:100A800004D0018821F0800101807047018841F085
:100A9000800101807047B1F5804F04D0818B21F433
:100AA000804181837047818B41F48041818370470D
:100AB000034600209A8A1B8B1B041A4322F07F42B4
:100AC000914300D101207047818A008B00040143CB
:100AD00021F07F4070470CB50246002000920A0FBB
:100AE000019221F07F41019A002A03D0009A14322A
:100AF000009203E0090C009A18320092009A1268E2
:100B00000A4200D001200CBDC9438182704710B554
:100B100002460020938801F0E06403EA144321F0C8
:100B20007F41928A0A4202D0002B00D0012010BDE2
:100B3000C9438182704700000054004040420F00CA
:100B4000A086010010B501210C07204600F094F9A1
:100B50002046BDE81040002100F08EB9214908620E
:100B600070472049086170471F4A116821F0E00171
:100B70000143116070471B49A031086070471A4B50
:100B80001A6822F0030202431A601848026842F011
:100B900004020260012905D020BF016821F0040190
:100BA0000160704730BFF8E70F48016841F0040169
:100BB0000160016841F0020101600C48016841F0E8
:100BC0000401016030BF704701460020064A5268A8
:100BD0000A4200D00120704703490A6842EA8000B7
:100BE0000860704700000E420070004010ED00E009
:100BF000B448016841F0010101604168B24A114006
:100C000041600168B14A11400160016821F480210E
:100C10000160416821F4FE0141604FF41F018160D1
:100C20007047A8490A6822F480320A600A6822F4F0
:100C300080220A60B0F5803F07D0B0F5802F03D145
:100C4000086840F4A02008607047086840F48030CD
:100C5000086070470346002059099A4A01290AD0C2
:100C600002290AD0516A03F01F02012393400B426C
:100C700000D0012070471168F5E7116AF3E718B555
:100C8000002000904FF4A0643120FFF7E3FF0099AB
:100C9000491C00910099A14201D00028F4D03120D4
:100CA000FFF7D8FF08B1012018BD002018BD854A04
:100CB000116821F0F80141EAC000106070478449D2
:100CC000086070477F4B5A6822F47C120843104337
:100CD000586070477E49086670477A4A516821F02B
:100CE00003010143516070477648406800F00C00F2
:100CF0007047744A516821F0F00101435160704718
:100D0000704A516821F4E0610143516070476D4AB7
:100D1000516821F4605141EAC00050607047694A4F
:100D2000002903D0517A014351727047517A8143AF
:100D3000517270476649D83108607047614A5168FE
:100D400021F440410143516070475E490022203147
:100D50000A7001F82029012805D0042802D10520B5
:100D600081F820007047012081F820007047594920
:100D70000860704753490A6A02430A62704755493E
:100D800044390860704710B54E4A516801F00C01B3
:100D9000514B002927D0042927D0082927D00360E8
:100DA000516801F0F00109094C4B5C5C0168E140BD
:100DB0004160546804F4E064240A1C5D21FA04F4E0
:100DC0008460546804F46054E40A1B5DD940C16037
:100DD000526802F44042920B404B1B1F9A5CB1FBDD
:100DE000F2F1016110BD0360DAE70360D8E75168F2
:100DF00001F47011536803F48033022404EB914131
:100E000033B153689B0307D5354B59430160C7E79E
:100E1000334B59430160C3E72F4B59430160BFE790
:100E2000284A002903D05169014351617047516933
:100E3000814351617047234A002903D091690143DE
:100E40009161704791698143916170471D4A002902
:100E500003D0D1690143D1617047D1698143D16128
:100E60007047184A002903D0D1680143D160704708
:100E7000D1688143D1607047124A002903D01169BB
:100E80000143116170471169814311617047114934
:100E90004039086070470E49C86470470949C871F5
:100EA00070470848416A41F08071416270470146CD
:100EB0000020044A92680A4200D00120704701498C
:100EC00088727047001002400000FFF8FFFFF6FE36
:100ED000000042428004424200127A0018000020C2
:100EE00000093D00434A002903D0118801431180C5
:100EF000704711888143118070473E48001D01886A
:100F000041F01001018070473A48001D018821F02E
:100F100010010180704737481C300088354918316E
:100F2000098840EA0140704700B50246FFF7E5FF37
:100F30003049100C18310880081D02805DF804EB60
:100F4000E2E700B50246FFF7D8FF2A49C2F30340A3
:100F500008310880081D02805DF804EBD4E700B575
:100F60000246FFF7CAFF2349100C20310880081DF4
:100F700002805DF804EBC7E71E48103000880007C8
:100F8000010B1C4814300088084370471948001DA5
:100F900001888906FCD570471648001D018821F09C
:100FA0000801018001880907FCD57047014600202F
:100FB000104A121D12880A4200D0012070470D49C4
:100FC000091D0A8882430A8070470A49091D098859
:100FD000C2B21140074A1288024202D009B1012070
:100FE0007047002070470349091D0A8882430A8020
:100FF000704700000028004010B5A94988420AD176
:10100000841401212046FFF72CFF2046BDE8104044
:101010000021FFF726BFA34988420AD10414012109
:101020002046FFF729FF2046BDE810400021FFF7CA
:1010300023BF9D4988420AD1C41301212046FFF7EE
:101040001BFF2046BDE810400021FFF715BF10BD73
:1010500030B5028802F441530A884C88CD88224377
:101060008C882C4322430C8922434C8922438C894F
:101070002243CC8922431A430280828B22F40062ED
:101080008283098A018230BDF0B585B005460C46E1
:10109000022000210126AA8B4FF240031A40AA83A6
:1010A00002222A84AF8BA268022A21D0A08800B134
:1010B00002266846FFF767FE0098E188B1F5007FD9
:1010C0002CD07101B0FBF1F000EB8000A168400072
:1010D000B0FBF1F0401D80B20A21B0FBF1F000F04E
:1010E0000101401AC0F34F004FF6FF7202EA0121DE
:1010F000821EFE2A01D302200021E2880843024317
:101100002A8420886188A2890843A1881143084362
:10111000384340F40060A88305B0F0BD000A00EB3E
:101120008000A1684000B0FBF1F0401D80B2D3E721
:101130000021018041808180C180018141818181C4
:10114000C181072101827047002101804180818097
:10115000C1800222826081817047002904D0018809
:1011600041F0400101807047018821F04001018079
:101170007047002904D0818B41F4806181837047DE
:10118000818B21F4806181837047090901238B40A1
:1011900099B2002A03D082880A43828070478288ED
:1011A0008A4382807047002A03D082880A43828063
:1011B000704782888A438280704781817047808926
:1011C0007047A1F57E42FF3A04D0018841F4807156
:1011D00001807047018821F48071018070470029E7
:1011E00004D0818841F0040181807047818821F01A
:1011F000040181807047028822F400620280028824
:101200000A4302807047018841F480510180704791
:10121000002904D0018841F4005101807047018801
:1012200021F4005101807047012901D0008B7047E3
:10123000808A7047008A7047B1F5804F04D00188DA
:1012400021F4804101807047018841F48041018090
:1012500070470246002012890A4200D001207047E0
:10126000C9430181704730B50246002001F00F03E9
:10127000012505FA03F4A3B2090905FA01F4A4B2A1
:101280009188214012891A4202D0002900D0012001
:1012900030BD01F00F0201219140C9430181704727
:1012A0000030014000380040003C004010B5E149EA
:1012B00088420AD101218C032046FFF7D2FD204647
:1012C000BDE810400021FFF7CCBDDB4988420AD1C0
:1012D00001214C042046FFF7CFFD2046BDE8104019
:1012E0000021FFF7C9BDD54988420AD101218C04EC
:1012F0002046FFF7C1FD2046BDE810400021FFF762
:10130000BBBDCF4988420AD10121CC042046FFF75A
:10131000B3FD2046BDE810400021FFF7ADBDC9492F
:1013200088420AD101210C052046FFF7A5FD204681
:10133000BDE810400021FFF79FBD10BD30B585B05E
:1013400004460D46208A4CF6FF710840E9880143A7
:101350002182A0894EF6F3110840A9882A891143F9
:101360006A8902431143A181A08A4FF6FF410840D8
:10137000A9890143A1826846FFF705FDAD48844273
:1013800001D1039800E00298A189090408D500EB77
:10139000C00101EB001029684900B0FBF1F007E043
:1013A00000EBC00101EB001029688900B0FBF1F0EF
:1013B0006422B0FBF2F109010B096FF018056B43D1
:1013C00000EB8300A3891D044FF0320307D503EB24
:1013D000C000B0FBF2F000F00700084306E003EBAA
:1013E0000010B0FBF2F000F00F000843208105B0C0
:1013F00030BD4FF41651016000218180C180018110
:101400000C2242818181704710B5038A4FF2FF029E
:1014100013400A884C8822438C88C9880C43224395
:101420001A43028210BD0021018041808180C18069
:101430007047002904D0818941F4005181817047AF
:10144000818921F400518181704710B540F66A13FB
:10145000C1F3421301F01F040121A140012B07D069
:10146000022B07D014303AB102680A43026010BD63
:101470000C30F8E71030F6E702688A43026010BDCE
:10148000002A03D0828A0A4382827047828A8A4372
:1014900082827047028A22F00F020282028A0A4385
:1014A00002827047828922F40062828182890A4323
:1014B00082817047002904D0818941F00201818135
:1014C0007047818921F0020181817047028A22F0F0
:1014D00020020282028A0A4302827047002904D055
:1014E000018A41F4804101827047018A21F48041E0
:1014F00001827047C1F30801818070478088C0F382
:1015000008007047818941F0010181817047028B99
:10151000D2B20283028B42EA012101837047028B1F
:1015200002F47F420283028B0A4302837047002940
:1015300004D0818A41F0200181827047818A21F0A4
:10154000200181827047002904D0818A41F0100176
:1015500081827047818A21F01001818270470029C1
:1015600004D0818A41F0080181827047818A21F08C
:10157000080181827047002904D0818941F400412B
:10158000818170478189C1F30E01818170470029F3
:1015900004D0818A41F4006181827047818A21F4FC
:1015A000006181827047828A22F004028282828AEC
:1015B0000A4382827047002904D0818A41F00201E7
:1015C00081827047818A21F0020181827047024640
:1015D000002012880A4200D0012070478A05C943C2
:1015E0000180704770B5002440F66A12C1F34213BF
:1015F00001F01F05012606FA05F2012B0CD0022B83
:101600000DD0838A1340090A8E40008830400BB108
:1016100000B10124204670BD83891340F3E7038A9B
:101620001340F0E740F66A120A0A01219140C943CB
:1016300001807047003801400044004000480040ED
:10164000004C00400050004031487047314870471E
:1016500010B531484FF47A710068B0FBF1F0B0F189
:10166000807F0CD220F07F414FF0E020491E416185
:101670002A4AF0211170002181610721016100F0E7
:1016800037F900F078F905F08CFD08F02BFD07F034
:10169000A0FB002000F0FDFD00F0DAFE01F098FB59
:1016A000FFF7D4FF0446FFF7CFFF2146BDE8104007
:1016B00002F048BE10B502F049FA01F05BFBBDE84C
:1016C000104002F04EBA70B5044603F04BF9144DC9
:1016D00016E00A2809D10D212846FFF70BFF8021CB
:1016E0002846FFF774FF0028F9D014F8011B28469C
:1016F000FFF700FF80212846FFF769FF0028F9D097
:1017000020780028E5D1BDE8704003F036B900002C
:10171000AC020020AC8200200000002023ED00E09D
:10172000003801402DE9FE4302A800F0ACFE01465E
:10173000BDF8082044A002F0FEFC06F023FD0020C6
:1017400006F086FE00F053FD0022052143A001F0C3
:1017500000FF444CA0600022052143A001F0F9FEE7
:101760002061A06818B142A002F0E5FC02E045A0AB
:1017700002F0E1FC02220023510246A002F07CF8B4
:10178000A06110B145A002F0D6FC00230222012185
:1017900048A002F071F8206210B140A002F0CBFC2A
:1017A00014250526CDE900654FF480773B460022DD
:1017B000434944A003F0E4F960604FF0FF3800288B
:1017C00037D003F0A7F9CDE900654FF480594B46B7
:1017D00000223D493DA003F0D3F9E06058B303F087
:1017E00099F9CDE900654B4600223A493AA003F049
:1017F000C7F9606108B303F08DF90720CDE9000552
:101800004B460022364937A003F0BAF9E061B0B187
:1018100003F080F9CDE900653B460022324933A050
:1018200003F0AEF9206060B103F074F90020BDE868
:10183000FE834046FBE74046F9E74046F7E740466F
:10184000F5E74046F3E700000A6E756D6265723A8F
:10185000693D25642C6E756D3D25640067346D62AD
:10186000000000002800002067346170706D620085
:101870000D0A67346D622073756363657373210AA3
:101880000A0000000D0A67346D626661696C210A06
:101890000A00000067346D73676D7100CFFBCFA243
:1018A000B6D3C1D0B4B4BDA8B3C9B9A6A3A10A0A1E
:1018B00000000000696E70757473696700000000B5
:1018C00061780008673400000D790008673472659C
:1018D00063000000A5780008673473656E0000009F
:1018E000478C000875690000278E00086B65790039
:1018F00038B501210820FFF79EFA2020ADF800003E
:1019000010208DF8030003208DF802000F4C69466B
:101910002046FEF76CFE0121ADF800106946204616
:10192000FEF765FE0221ADF8001069462046FEF77D
:101930005EFE20212046FEF7C9FE01212046FEF76B
:10194000C5FE02212046FEF7C1FE38BD000C014055
:1019500008B54FF4A060FEF7C1FC25208DF800000B
:1019600001208DF801008DF802008DF80300684613
:10197000FEF7B9FC08BD10B586B001210420FFF7C1
:101980005AFA01218803FFF756FA4FF40070ADF8B8
:10199000140018208DF8170003208DF816004E4C07
:1019A00005A92046FEF723FE2115ADF814100421E9
:1019B0008DF8171005A92046FEF719FE4FF4E13007
:1019C00001900020ADF80800ADF80A00ADF80C0059
:1019D000ADF810000C20ADF80E00404C01A92046D7
:1019E000FFF7ACFCFFF7B4FF012240F2255120467F
:1019F000FFF72BFD01212046FFF71BFD06B010BDB0
:101A000010B504462046FFF775FD80212046FFF7FC
:101A1000DEFD0028F9D010BD2DE9F04107460D4646
:101A20001646002405E0295D3846FFF7E9FF641CEF
:101A3000E4B2B442F7D340213846FFF7C8FD00288E
:101A4000F9D0BDE8F08170B506460D460024304659
:101A5000295DFFF7D5FF641C285D0028F7D14021E0
:101A60003046FFF7B4FD0028F9D070BD70B50546CB
:101A7000080ACCB201462846FFF73CFD80212846E3
:101A8000FFF7A5FD0028F9D021462846FFF732FDD3
:101A900080212846FFF79BFD0028F9D070BD70B566
:101AA00004460E4DE1B22846FFF724FD802128466A
:101AB000FFF78DFD0028F9D0204670BD10B5074C0A
:101AC00020212046FFF783FD0028F9D02046BDE8FD
:101AD0001040FFF713BD000000080140003801402E
:101AE00010B50122F7A1F84809F0EFFF0D2802D048
:101AF000A8B1022010BD00221146F2A00AF085FF15
:101B000008B1012010BD0122EEA1002009F0DDFF87
:101B10000122ECA1EC4809F0D8FF002010BD002004
:101B200010BD38B541F2240002F03EFC044600210D
:101B3000E6A00AF084FC70B11222E4A120460AF06B
:101B400001F840B96B460722E6A120460AF09FF94A
:101B500020460AF0FBFA0021E4A00AF070FCA0B1D4
:101B60001222E2A1204609F0EDFF70B96B46072270
:101B7000E4A120460AF08BF96B460722E3A1204638
:101B80000AF085F920460AF0E1FA0021E1A00AF006
:101B900056FC80B11222DFA1204609F0D3FF50B9D4
:101BA000E0A120460BF065FAE1A120460BF061FAB6
:101BB00020460AF0CBFA0021E0A00AF040FC40B138
:101BC0001222DEA1204609F0BDFF10B920460AF01E
:101BD000BDFA204602F066FC38BD70B504462820E8
:101BE00002F0E2FB08B1002106E0002070BD0B46C8
:101BF000491CC9B2C254641C2278202AF7D1641C43
:101C000000254554002105E00B460344491CC9B298
:101C10001A75641C22780A2AF6D101440D754562B2
:101C2000056270BD2DE9F0419AB006460C46002CC5
:101C300009D00322B7A1204609F084FF90B101200A
:101C40001AB0BDE8F0810120FAE7FFF7C6FF0546AC
:101C5000CDB105F1140130460BF0E3FB70B128461D
:101C600002F020FCA7682246642101A80BF081F94C
:101C7000D4F808800028E8D1012605E0002628468F
:101C800002F010FC00E001265EB11DE0D4F80880EF
:101C9000394620460AF06DFA294620460BF0E9F94C
:101CA000A768414620460AF064FA2246642101A84A
:101CB0000BF05FF90546002DE8D1394620460AF0C1
:101CC00058FA20460AF053FC20460AF03FFA304604
:101CD000B6E770B505460C46002C07D002228DA150
:101CE000204609F02FFF18B1012070BD012070BD02
:101CF0002046E1680AF03DFA2A4697A120460BF0FB
:101D0000B8F920460AF022FA002070BD70B59AB0EA
:101D100006460D460024002D08D001227DA128464C
:101D200009F010FF90B100201AB070BD0020FBE751
:101D3000FFF753FF044684B104F1140130460BF061
:101D400070FB50B1204602F0ADFB00242A4664210E
:101D500001A80BF00EF90028EAD128460AF0F6F99E
:101D60002046E1E770B59AB0064600250024002E13
:101D700007D0012267A1304609F0E4FE50B10020EF
:101D8000D2E70020D0E7FFF728FF50B175B16062BD
:101D90000462646A3246642101A80BF0EAF8002864
:101DA000F1D130460AF0D2F92846BDE705462C4667
:101DB000F0E730B589B004460D46012243A128461C
:101DC00009F0C0FE10B1012009B030BD2A461E2125
:101DD00001A80BF0CEF878B10BF01CFB01A9084468
:101DE000002100F8011C214601A80BF01AFB08B1E4
:101DF000022402E0002400E0022428460AF0A6F9AA
:101E00002046E1E770B504460D46002D07D00322B9
:101E10002EA1284609F096FE18B1012070BD0120C0
:101E200070BD28460AF0A3FB08B1012405E0224654
:101E300049A128460BF01DF9002428460AF086F92E
:101E4000204670BDF0B589B007460E46002E08D07A
:101E5000012226A1304609F075FE20B1012009B00B
:101E6000F0BD0120FBE700250AE020460BF0D2FA86
:101E7000204400F8015C394601A80BF0D2FA48B1C1
:101E800032461E2101A80BF074F80446002CECD158
:101E9000022400E0002430460AF058F92046DEE72C
:101EA0002DE9F04389B080460C46002C56D0032221
:101EB0000EA1204609F046FE18B1012009B0BDE888
:101EC000F0834DE0313A0000D0920020313A6D614C
:101ED0006E616765725F70617373776F72642E7481
:101EE000787400003030303030300A00313A6765A5
:101EF0006E6572616C5F70617373776F72642E745C
:101F0000787400003131313131310A0032323232ED
:101F100032320A00313A757365725F696E666F2EF0
:101F200074787400D5C5C8FD203130300A00000037
:101F3000C0EECBC4203130310A000000313A746564
:101F40006D706F726172795F70617373776F7264B5
:101F50002E7478740000000025730A000120ADE79C
:101F60004FF00209A66822461E2101A80BF001F8D5
:101F70000546A7688DB328460BF04CFA284400218B
:101F800000F8011C414601A80BF04BFA0028E9D1EA
:101F9000B146394620460AF0ECF822461E2101A837
:101FA0000AF0E7FF054655B1A768314620460AF01A
:101FB000E0F8294620460BF05CF8A668E9E73146D0
:101FC00020460AF0D6F820460AF0D1FA49462046C3
:101FD0000AF0CFF84FF00009C4E7FFE720460AF007
:101FE000B5F848466AE770B505460C46002C0FD098
:101FF00021462846FFF726FF60B101280CD00222B7
:10200000AFF21811204609F09DFD38B1012070BDD6
:10201000012070BD022070BD012070BD2046E16826
:102020000AF0A7F82A46AFF2D00120460BF021F8BB
:1020300020460AF08BF8002070BD2DE9F04389B0EE
:1020400081460025B9F1000F08D00122AFF26411DA
:10205000484609F077FD18B100202FE700202DE752
:1020600000271EE040460BF0D5F9404400F8017C03
:1020700065B11C2002F098F90646414630460BF047
:10208000DEF9B761A6617461A4690AE01C2002F060
:102090008BF90546414628460BF0D1F9AF616F61D7
:1020A0002C464A461E2101A80AF063FF80465FEADB
:1020B0000800D7D148460AF049F82846FEE670B530
:1020C0000446282002F070F9002130B10025057087
:1020D000456205628561C56106E0002070BD0B4662
:1020E000491CC9B2C254641C22783B2AF7D1641C33
:1020F000455402E030390175641C21783B29F9D13F
:10210000641C6FF02F0307E0826902EB820203EB8D
:10211000420211448161641C21783B29F4D1641C82
:1021200007E0C26902EB820203EB42021144C16183
:10213000641C21780A29D1D00029F2D170BD70B574
:102140008EB006460D46002D09D00122AFF21421B3
:10215000284609F0F7FC80B101200EB070BD0120C7
:10216000FBE7FFF7ACFF0446ACB1314620460BF06D
:1021700058F958B1204602F095F92A46322101A8B3
:102180000AF0F7FE0028ECD1022605E000262046E2
:1021900002F088F900E00126284609F0D7FF304612
:1021A000DBE72DE9FC410746089C884615461E469C
:1021B000002C09D00222AFF27C21204609F0C2FC9B
:1021C00020B10120BDE8FC810120FBE72046E16849
:1021D00009F0CFFFCDE9005643463A460CA1204610
:1021E0000AF047FF204609F0B1FF0020EAE710B5EA
:1021F00006F033FB06F00BF94FF47A7002F06EFD37
:10220000FFF76EFC002802D1BDE8104089E410BD44
:1022100025733B25643B25643B25640A00000000D0
:1022200010B501214FF0C050FEF710FE0120FEF75F
:1022300095FCFEF7AFF80120FEF787FD4120FEF781
:1022400009FD0028FAD04FF48070FEF793FD0120BD
:10225000FEF795FDFEF7A0FEFEF798FE0121032094
:10226000FEF740FEFEF792FE47F6FF70FEF769FEAE
:10227000BDE81040FEF78ABE10B50446FFF7D0FF58
:10228000FEF784FE2046FEF74FFEBDE81040FEF745
:102290007DBE70B505460420FEF7A6F84AF2A554A7
:1022A000A04207D02846FFF7E7FF21460420FEF7AB
:1022B00093F816E001214FF0C050FEF7C7FD012052
:1022C000FEF74CFC7B20FEF7C5FC10B97A20FEF728
:1022D000C1FCFEF761FE01210320FEF703FEFEF7BD
:1022E00055FEBDE87040FEF7DCBD10B5FEF754FEAC
:1022F000BDE81040FEF70FBE10B50446FEF74CFED9
:10230000FEF744FE2046FEF70FFEBDE81040FEF744
:102310003DBE000038B54FF4A0652846FDF7DEFF4E
:1023200026218DF8001001248DF801408DF802401F
:102330008DF803406846FDF7D6FF2846FDF7CEFF2F
:1023400006208DF8000000208DF801008DF8024075
:102350008DF803406846FDF7C6FF38BD2DE9F04112
:1023600088B001210420FEF766FD01214804FEF734
:102370006DFD01210520FEF75EFD01210420FEF721
:102380005AFDFFF7C7FF0126ADF81C6004258DF844
:102390001F50DFF8848407A94046FEF728F9002182
:1023A0000846FEF7E0F9019600248DF8084008275A
:1023B0008DF809708DF80A6001A8FEF747F8102122
:1023C000ADF81C108DF81F1003268DF81E6007A9AC
:1023D0004046FEF70CF910214046FEF777F9ADF8BC
:1023E0001C5018208DF81F008DF81E6007A940466C
:1023F000FEF7FDF8ADF81C708DF81F5007A9404698
:10240000FEF7F5F84FF496400390ADF81040ADF8A4
:102410001240ADF81440ADF818400C20ADF816008D
:10242000FE4C03A92046FEF789FF012240F2255108
:102430002046FFF70AF8012240F224412046FFF728
:1024400004F801212046FEF7F4FF08B0BDE8F08152
:1024500084E710B5F14C01462046FFF74BF8802188
:102460002046FFF7B4F80028F9D010BD70B5054636
:102470000E46002404E0285DFFF7EBFF641CA4B2C5
:10248000B442F8D370BD70B50646F520FFF7E1FF02
:102490000920FFF7DEFF0020FFF7DBFF0020FFF73A
:1024A000D8FF0020FFF7D5FF0020FFF7D2FF09205B
:1024B000FFF7CFFFF520FFF7CCFFD94D0020288094
:1024C000002404E0322002F009FC641CA4B2298834
:1024D00009B9142CF6D32888082812D1D148447899
:1024E0008378C17802795C4081EA02056C404579C5
:1024F0008079854201D1012000E00020844200D093
:102500000AB1012070BD01EB03203080002070BDB6
:102510002DE9F04106460F46F520FFF79AFF4720C8
:10252000FFF797FF0020FFF794FF0420FFF791FFCC
:102530000020FFF78EFF0020FFF78BFF4320FFF7FF
:1025400088FFF520FFF785FFF520FFF782FF0020C9
:10255000FFF77FFF0120FFF77CFF0020FFF779FFE7
:102560006420FFF776FF6520FFF773FFF520FFF784
:1025700070FFAB4D00202880002404E0322002F0E0
:10258000ADFB641CA4B2288808B9142CF6D32888A3
:10259000082817D1A34844788278C1780379544039
:1025A0004B405C4043798579AB4201D1012300E087
:1025B00000239C4206D001EB022131800079387063
:1025C000002043E7012041E770B5F520FFF741FF08
:1025D0002C20FFF73EFF0020FFF73BFF0020FFF716
:1025E00038FF0020FFF735FF0020FFF732FF2C20D7
:1025F000FFF72FFFF520FFF72CFF894D00202880E3
:10260000002404E0322002F069FB641CA4B2288894
:1026100008B9142CF6D32888082811D181484278AB
:102620008178C3784A4001794B405A404379807998
:10263000834201D1012000E00020824200D009B194
:10264000012070BD002070BD70B50446002C03D081
:10265000012C01D0012070BDF520FFF7FAFE2D20DE
:10266000FFF7F7FE0020FFF7F4FE2046FFF7F1FE2C
:102670000020FFF7EEFE0020FFF7EBFE84F02D00B8
:10268000FFF7E7FEF520FFF7E4FE654D0020288008
:10269000002404E0322002F021FB641CA4B228884C
:1026A00008B9142CF6D32888082811D15D4842783F
:1026B0008178C3784A4001794B405A404379807908
:1026C000834201D1012000E00020824200D009B104
:1026D000012070BD002070BD70B50646F520FFF7E3
:1026E000B8FE2D20FFF7B5FE0020FFF7B2FE002058
:1026F000FFF7AFFE0120FFF7ACFE0020FFF7A9FEB9
:102700002C20FFF7A6FEF520FFF7A3FE444D002086
:102710002880002404E0322002F0E0FA641CA4B215
:10272000298809B9142CF6D32888082812D13D48E5
:102730004378817802794B40C17881EA0204634092
:1027400044798079844201D1012000E00020834255
:1027500000D00AB1012070BD3170002070BD2DE99C
:10276000F041074690461E460D0ACCB2F520FFF711
:1027700070FE3846FFF76DFE2846FFF76AFE2046DA
:10278000FFF767FE4046FFF764FE0020FFF761FE9B
:1027900087EA0500604080EA0800FFF75AFEF5204E
:1027A000FFF757FE1E4D00202880002404E0322051
:1027B00002F094FA641CA4B2288808B9C82CF6D395
:1027C0002888082813D1174842788178C3784A406E
:1027D00001794B405A4043798079834201D10120ED
:1027E00000E00020824202D0317000202EE601205D
:1027F0002CE670B50E46040AC5B2F520FFF729FE97
:102800000420FFF726FE2046FFF723FE2846FFF7A9
:1028100020FE002008E000000008014000440040C5
:102820004C00002004A30020FFF713FE0020FFF758
:1028300010FE6C4084F00400FFF70BFEF520FFF75C
:1028400008FEFC4D00202880002404E0322002F025
:1028500045FA641CA4B2288808B9142CF6D3288839
:10286000082813D1F44842788178C3784A40017926
:102870004B405A4043798079834201D1012000E0E6
:102880000020824202D03170002070BD012070BD56
:1028900070B50646F520FFF7DCFD0520FFF7D9FDF2
:1028A0000020FFF7D6FD0020FFF7D3FD0020FFF743
:1028B000D0FD0020FFF7CDFD0520FFF7CAFDF52074
:1028C000FFF7C7FDDB4D00202880002404E0322004
:1028D00002F004FA641CA4B2298809B9142CF6D3B6
:1028E0002888082813D1D44842788178C3784A4090
:1028F00001794B405A4043798079834201D10120CC
:1029000000E00020824202D03170002070BD012022
:1029100070BD70B50E46040AC5B2F520FFF799FDEB
:102920000B20FFF796FD2046FFF793FD2846FFF7A3
:1029300090FD0020FFF78DFD0020FFF78AFD6C4021
:1029400084F00B00FFF785FDF520FFF782FDB94D00
:1029500000202880002404E0322002F0BFF9641C2B
:10296000A4B2288808B9142CF6D32888082813D1D3
:10297000B14842788178C3784A4001794B405A4047
:1029800043798079834201D1012000E00020824216
:1029900002D03170002070BD012070BD2DE9F041E2
:1029A00006460F46F520FFF754FD0C20FFF751FDBA
:1029B0000020FFF74EFD0020FFF74BFD0020FFF742
:1029C00048FD0020FFF745FD0C20FFF742FDF520F4
:1029D000FFF73FFD974D00202880002404E03220BF
:1029E00002F07CF9641CA4B2288808B9282CF6D31C
:1029F0002888082818D1904843788178C2784B40BD
:102A0000017984794A4053404279A24201D101229E
:102A100000E00022934207D03970C178807801EB42
:102A200000203080002011E501200FE570B50E4632
:102A3000F520FFF70EFD0A20FFF70BFD0020FFF742
:102A400008FD0020FFF705FD0020FFF702FD002034
:102A5000FFF7FFFC0A20FFF7FCFCF520FFF7F9FC6D
:102A6000744D00202880002404E0322002F036F962
:102A7000641CA4B2288808B90A2CF6D32888082830
:102A800013D16D4842788178C3784A4001794B4030
:102A90005A4043798079834201D1012000E000202F
:102AA000824202D03170002070BD012070BD2DE93E
:102AB000F04781460D461646F520FFF7CAFC2B204D
:102AC000FFF7C7FC0020FFF7C4FC0020FFF7C1FCA4
:102AD0000020FFF7BEFC0020FFF7BBFC2B20FFF718
:102AE000B8FCF520FFF7B5FC524F4FF00008A7F8EF
:102AF0000080002404E0322002F0F0F8641CA4B24C
:102B0000388808B9282CF6D3388808282BD34A48A7
:102B1000017989F80010398808290CD0817A407A27
:102B200001EB002080B22880800001F03DFC0024F1
:102B3000414B0B3311E0A5F800800020BDE8F08781
:102B400059781A7801EB022120F8241000EB840256
:102B500099789170DB1C641CA4B22988A142EFD83B
:102B600030600020EAE70120E8E770B504460E4631
:102B7000F520FFF76EFC2820FFF76BFC0020FFF725
:102B800068FC2046FFF765FC0020FFF762FC002090
:102B9000FFF75FFC84F02800FFF75BFCF520FFF7F0
:102BA00058FC244D00202880002404E0322002F04C
:102BB00095F8641CA4B2288808B90A2CF6D3288892
:102BC000082813D11C4842788178C3784A4001799B
:102BD0004B405A4043798079834201D1012000E083
:102BE0000020824202D03170002070BD012070BDF3
:102BF0002DE9F04106460F46F520FFF72AFC282074
:102C0000FFF727FC0020FFF724FC0020FFF721FC42
:102C10000120FFF71EFC0020FFF71BFC2920FFF717
:102C200018FCF520FFF715FC024D00202880002439
:102C300009E000004C00002004A30020322002F034
:102C40004DF8641CA4B2288808B90A2CF6D3288849
:102C5000082815D1334843788178C2784B400179F0
:102C600084794A4053404279A24201D1012200E0D6
:102C70000022934204D03970C07830700020A0E464
:102C800001209EE470B5284C40F225512046FEF705
:102C9000A9FC244D254E38B12046FEF72FFC718843
:102CA0004A1C7280685470BD40F224412046FEF7F1
:102CB00099FC0128F7D12046FEF720FC708830806F
:102CC0001BA001F038FA002405E0295D1BA001F0EB
:102CD00032FA641CE4B270888442F6D3318818A0BA
:102CE00001F029FA0020708070BD38B510200090E6
:102CF0000120FDF7FCFB002813D0154C01212046D4
:102D0000FDF7D0FC012809D110212046FDF7E0FC99
:102D1000104801226946006800F0E7FD0120FDF738
:102D2000F4FB38BD04A30020004400404C00002008
:102D30000A0A6261636B3A0A0000000025782000ED
:102D40000A627566666C656E203D2025640A000087
:102D5000000801404800002070471848006870478C
:102D600010B5044602F090F914490C60BDE810401B
:102D700002F08EB910B511490868401C086001F0D6
:102D8000A8FE016D491E016519B9C16C016501F00C
:102D90003AFFBDE8104002F016B9002802DA4FF001
:102DA000FF30704700EB4001C1EBC01040F2E7314B
:102DB00001EBC000491C90FBF1F07047500000206F
:102DC00000207047002070470020704700207047A7
:102DD00070B5234C234D02E020688047241DAC428F
:102DE000FAD370BD70B51F4C1F4D02E020688047BC
:102DF000241DAC42FAD370BD10B5FFF7F3FFBDE858
:102E00001040FEF78FBC1CB514200221CDE9001044
:102E100040F68A430022AFF21F0114A001F0B0FE79
:102E2000BDE81C4001F076BE10B502F02DF9FEF7AA
:102E30000FFC01F08FF902F0FBF801F0F3FCFFF753
:102E4000E2FF02F0FFF800F054F801F001FD00206D
:102E500010BD10B502F018F9FFF7E6FF002010BD15
:102E6000ECBA0708F0BA0708F4BA07086D61696E92
:102E70000000000070B528E002F006F9064600F0F8
:102E800052F870B32C480468A4F11C05D4E9001072
:102E90004860D4E9000108606460246001F062FDCC
:102EA000D5F8881009B128468847284601F07CFCEF
:102EB00001280FD001F061FD304602F0E9F8286BDF
:102EC00001F0F0FA284601F05EFC00F02CF8002832
:102ED000D2D170BD01F051FD3046BDE8704002F026
:102EE000D7B83046BDE8704002F0D2B8FFF7C2FF55
:102EF000FCE71FB52020C2000721104BCDE90210CE
:102F0000CDE900320D4800230D4A0EA1903801F0A2
:102F1000C4FD04B00948BDE81040903801F0FABD86
:102F200006489038704704480168814201D001206A
:102F300070470020704700000001002094B7002077
:102F4000ED2E00087469646C650000002DE9F04105
:102F500005460E461446304601F081FE06F11C0778
:102F600014B1012C1DD104E03946284600F0D9FDEA
:102F700017E02C680DE0A4F11C0096F83D1090F8C5
:102F80003D20914204D239461C3000F0CAFD02E0D7
:102F90002468AC42EFD1AC4203D13946284600F058
:102FA000C0FD0020BDE8F08170B505464FF0FF344C
:102FB0000AE002F069F8064628681C38846301F0CC
:102FC0008BFD304602F064F8284600F0B1FD002881
:102FD000EFD0002070BD2DE9F041054616461F4692
:102FE0000A460121284601F07DFB2C461C34646012
:102FF0002460AE846F740020D4E710B5044604F159
:103000001C00FFF7D1FF204601F08AFB002010BD15
:1030100070B50C4615460146012001F08FFB0028D3
:1030200005D000F11C01496009608484457470BDBD
:1030300010B5044604F11C00FFF7B6FF204601F06E
:10304000A2FB002010BD73B5044602F01DF8064631
:10305000A08C28B1401EA084304602F019F821E06F
:10306000019808B301F035FD05460020A863627C95
:10307000294604F11C00FFF769FF0198002809DDCB
:1030800005F1540001AA0021044601F082FF204608
:1030900001F001FF304601F0FBFF01F0E9FBA86BF6
:1030A000002800D100207CBD304601F0F1FF6FF018
:1030B00001007CBD0021C6E72DE9F0410446002552
:1030C00001F0E2FF064604F11C00074600F030FD67
:1030D00040B1A08C401CA084304601F0D9FF012DE6
:1030E00005D006E0384600F02AFD0125F4E701F09E
:1030F000BFFB002056E770B505461446012902D0F3
:103100004FF0FF3070BD01F0BFFF064605F11C0017
:10311000FFF74AFFAC84304601F0BAFF01F0A8FB8C
:10312000002070BD70B5044615460A4602212046AF
:1031300001F0D8FA20461C30406000600120A084D5
:103140000020A062FF2184F8261084F8270065740F
:1031500070BD10B5044604F11C00FFF725FF2046A2
:1031600001F0DEFA002010BD10B50C460146022029
:1031700001F0E4FA00280DD000F11C01496009605B
:103180000121818400218162FF2280F8262080F8BD
:103190002710447410BD10B5044604F11C00FFF75D
:1031A00003FF204601F0EFFA002010BD2DE9F341A6
:1031B000044601F08EFC054601F066FF064600203D
:1031C000A863A06AA84204D114F8270F401C2070FD
:1031D00045E0A08C58B134F8240F401E2080656073
:1031E00095F83D00A070E078401CE07037E0019851
:1031F00050B3A06A95F83D1090F83D20914204D25A
:1032000005F13D02022101F06AFD627C294604F1CC
:103210001C00FFF79BFE0198002809DD05F1540012
:1032200001AA0021074601F0B4FE384601F033FE42
:10323000304601F02DFF01F01BFBA86B60B1093097
:10324000C7D0A86BBDE8FC816FF00104AC633046C9
:1032500001F01EFF2046F5E701F016FF0646304656
:1032600001F016FF0020EDE72DE9F04104460025AE
:1032700001F02FFC064601F007FF0746A06AB042A6
:1032800006D06C1EB463384601F002FF204689E682
:1032900094F82710491EC9B284F82710C1B994F8D0
:1032A000261090F83D20914204D004F1260202211C
:1032B00001F015FD04F11C00064600F039FC68B170
:1032C000A08C401CA0840020A062FF2084F826006F
:1032D000384601F0DDFE012D0FD010E054F81C0F30
:1032E0001C38E06090F83D00A072E07A401CE0726B
:1032F000304600F024FC0125EAE701F0B9FA00208D
:1033000050E64FF0FF30704770B5054614460A4648
:103310000321284601F0E6F96C742C461C346460E5
:1033200024600020686270BD10B5044604F11C00E2
:10333000FFF73AFE204601F0F3F9002010BD10B56A
:103340000C460146032001F0F9F9002806D0447428
:1033500000F11C01496009600021416210BD10B5F7
:10336000044604F11C00FFF71FFE204601F00BFA93
:10337000002010BD2DE9F04704460D464FF0FF3800
:10338000002D0DD0002701F07FFE8246606A2843A1
:10339000606204F11C00814600F0CAFB18B128E00D
:1033A0004046BDE8F087E56921E0A5F11C004646EE
:1033B00090F84810CA0705D0416C626A914309D160
:1033C000002607E0890705D5416C626A114001D0EB
:1033D000416400262D6856B990F84810490703D576
:1033E000616A426C9143616201F076FB01274D45B1
:1033F000DBD1504601F04CFE012F01D101F038FA2B
:103400000020CEE72DE9FF470546DDF830900E4657
:1034100090464FF0FF30002E46D0074601F059FB92
:1034200004460020A06301F02FFE82465FEAC870C8
:1034300005D0686A36EA000008D1002706E05FEA96
:10344000887003D5686A304200D0002777B30398AC
:10345000D0B3666484F848806A7C214605F11C007C
:10346000FFF774FD0398002809DD04F1540003AA56
:103470000021054601F08DFD284601F00CFD504667
:1034800001F006FE01F0F4F9A06B00280CD101F068
:10349000FBFD8246B9F1000F02D0606CC9F8000054
:1034A000504601F0F5FDA06B04B07AE7B9F1000FCA
:1034B00003D0686A3040C9F800005FEA4870EFD571
:1034C000686AB0436862EBE7FFE76FF00100A06352
:1034D000E6E770B50446012902D04FF0FF3070BD19
:1034E00001F0D2FD054604F11C00FFF75DFD002050
:1034F0006062284601F0CCFD01F0BAF9002070BDF1
:103500002DE9F0410446069F16461D460A46042151
:10351000204601F0E7F8677420461C3040600060E8
:103520006662258500206085A085E0853034646072
:10353000246037E510B5044604F11C00FFF734FDA4
:1035400004F13000FFF730FD204601F0E9F80020DB
:1035500010BD70B50D4616460146042001F0EEF888
:103560000446200014D066741C3040600060A8B28D
:103570002085800000F018FF606258B1002060854F
:10358000A085E08504F1300040600060204670BDF9
:10359000204670BD204601F0F6F8002070BD10B541
:1035A000044604F11C00FFF7FFFC04F13000FFF7B4
:1035B000FBFC606A00F076FF204601F0E4F8002092
:1035C00010BD2DE9F74F04468B46002601F081FA25
:1035D000054601F059FD8046608D218D6FF0020A8D
:1035E000884201D1029808B100273BE0404601F033
:1035F0004FFD5046BDE8FE8FAF630298F0B1627C8C
:10360000294604F13000FFF7A1FC029800280CDDE8
:10361000FFF7A3FB064605F1540002AA00218146EC
:1036200001F0B7FC484601F036FC404601F030FDA1
:1036300001F01EF9A86B30B1A86BDBE7404601F042
:1036400027FD5046D6E701F01FFD8046029800286E
:1036500008DDFFF782FB861B0298801B0290002882
:1036600000DA0297608D218D8842C5D0A18D606AF5
:1036700040F821B0A08D401C80B2A085218D8842E9
:1036800000D3A785608D401C608504F11C000446B2
:1036900000F04EFA20B1404601F0FAFC0020A9E704
:1036A000204600F04CFA404601F0F2FC01F0E0F850
:1036B00000209FE7002284E72DE9F74F04468B4660
:1036C000002601F006FA054601F0DEFC8046608D1A
:1036D00002996FF0010A084301D000273CE0404600
:1036E00001F0D6FC504685E7AF630298F0B1627CEA
:1036F000294604F11C00FFF729FC029800280CDD84
:10370000FFF72BFB064605F1540002AA0021814673
:1037100001F03FFC484601F0BEFB404601F0B8FC1A
:1037200001F0A6F8A86B40B1A86B63E7404601F032
:10373000AFFC5046C5F838A05CE701F0A5FC804618
:103740000298002808DDFFF708FB861B0298801B03
:103750000290002800DA0297608D0028C4D0E18D25
:10376000606A50F82100CBF80000E08D401C80B268
:10377000E085218D884200D3E785608D401E6085FD
:1037800004F13000044600F0D3F920B1404601F0C6
:103790007FFC00202EE7204600F0D1F9404601F0E2
:1037A00077FC01F065F8002024E770B50446012994
:1037B00002D04FF0FF3070BD01F066FC054604F109
:1037C0001C00FFF7F1FB04F13000FFF7EDFB0020D8
:1037D0006085A085E085284601F05AFC01F048F894
:1037E000002070BD2DE9F0410446DDE9066817466A
:1037F0001D460A460521204600F074FF84F811801A
:1038000020461C30406000606762ED1C4FF6FC7083
:10381000054025852D1DB6FBF5F06085002222634D
:103820006263A263002008E0218D636A091D00FB2A
:103830000131A36B0B60A163401C618D8142F3DCFD
:10384000A285002056E410B5044604F11C00FFF7E1
:10385000ABFB204600F064FF002010BD10B504460D
:1038600004F11C00FFF7A0FB606A00F01BFE20467D
:1038700000F089FF002010BD2DE9F0410D461646ED
:103880001F460146052000F059FF0446200016D0CF
:1038900067741C3040600060ED1C4FF6FC70054002
:1038A0002585B0B260852D1D684300F07DFD606206
:1038B00038B1002222636263A26300200FE0204639
:1038C00018E42046FFF7CAFF002013E4218D636A45
:1038D000091D00FB0131A36B0B60A163401C618DCE
:1038E0008142F3DCA285204604E42DE9F041044640
:1038F0000F461646208DB04202D24FF0FF30C6E48C
:1039000001F0C2FBA56BA5B12968A16301F0C0FB62
:103910000020286032463946281D00F067F901F082
:10392000B3FB0646606B00B105606563206B28B190
:1039300005E001F0ADFB6FF00200A8E42563A08D67
:10394000401CA08504F11C00044600F0F1F820B1F1
:10395000304601F09DFB002099E4204600F0EFF88E
:10396000304601F095FB00F083FF00208FE42DE945
:10397000F04104460F461646208DB04202D24FF069
:10398000FF3084E401F080FBA56B8DB12968A16351
:1039900001F07EFB32463946281D00F027F901F080
:1039A00073FB0646206B28602563606B28B105E039
:1039B00001F06EFB6FF0020069E46563A08D401CAE
:1039C000A08504F11C00044600F0B2F820B1304696
:1039D00001F05EFB00205AE4204600F0B0F83046CB
:1039E00001F056FB00F044FF002050E42DE9FF5F9A
:1039F00004469146002601F06CF8054601F044FBB0
:103A00000746A08D03996FF0010B084301D0B04623
:103A100040E0384601F03CFB584604B0BDE8F09F5A
:103A2000C5F838800398F0B1627C294604F11C0087
:103A3000FFF78CFA039800280CDDFFF78EF9064695
:103A400005F1540003AA0021824601F0A2FA504673
:103A500001F021FA384601F01BFB00F009FFA86BCA
:103A600040B1A86BD9E7384601F012FB5846C5F8BB
:103A700038B0D2E701F008FB07460398002809DDBB
:103A8000FFF76BF9861B0398801B0390002801DA6F
:103A9000CDF80C80A08D0028C2D0256B286820634B
:103AA000606BA84201D1C4F83480A08D401EA0856F
:103AB000384601F0EDFA208D484500D281464A464D
:103AC000291D019800F092F801F0DEFAA16B29603F
:103AD000A56301F0DDFA00209FE770B504460129D7
:103AE00002D04FF0FF3070BD01F0CEFA054604F170
:103AF0001C00FFF759FA002108E002682263626B9C
:103B0000824200D16163A26B0260A063206B002837
:103B1000F3D1A185284601F0BBFA00F0A9FE0020F0
:103B200070BD4268116042684A6041600860704739
:103B30000168814201D1012070470020704710B513
:103B400000681C3800F0C8FF002010BD10B501F05F
:103B50009BFA0B4A1178491C1170BDE8104001F026
:103B600097BA10B501F090FA054A1178491E117004
:103B7000BDE8104001F08CBA0148007870470000A1
:103B80005400002010B5FFF7F7FFF74C08B120688C
:103B900010BD00F09EFF08B1806B10BD206810BD05
:103BA00070B50446FFF7E8FFEF4D08B12C6070BD1B
:103BB00000F08FFF08B1846370BD2C6070BD10B53C
:103BC000FFF7DAFF08B1E84810BD00F082FF08B146
:103BD000383010BDE44810BD10B50346C9B201E04D
:103BE00003F8011B521E541CFAD110BD30B5034618
:103BF00018468B4207D98C189C4204D307E011F871
:103C0000014B03F8014B521E541CF8D130BD002A61
:103C1000FCD08C189D1814F8014C05F8014C521E6C
:103C2000002AF6D130BD10B503461846814210D2A5
:103C30008C189C420DD9991803E014F8013D01F845
:103C4000013D521E531CF8D110BD11F8014B03F871
:103C5000014B521E541CF8D110BD10B5002306E0D4
:103C600003780C781B1B04D1401C491C521E002AEF
:103C7000F6D1184610BD014600E0491C0A78002A1A
:103C8000FBD1081A7047F0B506460F463846FFF7D5
:103C9000F2FF0546280004D03046FFF7ECFF04464B
:103CA00009E03046F0BD641E2A4639463046FFF72B
:103CB000D4FF20B1761CAC42F5DA0020F0BD3046CE
:103CC000F0BD10B510F8012B11F8013BA2F1410431
:103CD000192C00D82032A3F14104192C00D820332C
:103CE0009A4201D1002AEDD1D01A10BD10B5002A98
:103CF00007D0034611F8014B03F8014B14B1521ED3
:103D0000F8D110BD002101E003F8011B521EFBD1C8
:103D100010BD10B5002308E011F8013B0478E31A48
:103D20005BB223B9401C14B1521E002AF4D11846CC
:103D300010BD01E0401C491C027812B10B789A4278
:103D4000F8D000780978401A7047024600E0521C0B
:103D5000137813B1131A8B42F9D3101A704770B548
:103D600006463046FFF787FF451C284600F01CFB3F
:103D7000044634B12A4631462046FFF737FF204635
:103D800070BD002070BD70472DE9FF4FDDE90DB615
:103D90000F9D6C0602D5DFF8D4A103E0DFF8CCA1BB
:103DA000AAF1110AEC0601D525F00105EC0702D0B5
:103DB0004FF0300901E04FF020090027AC070BD588
:103DC000002A02DA2D27524206E06C0701D52B2784
:103DD00002E02C0700D520270024EE467AB93022D5
:103DE00001248DF800200CE00A2B15D002F00F0CF6
:103DF00012091AF80C80A446641C0EF80C80002AE4
:103E0000F2D1B44200DD2646ABEB060215F0110FED
:103E10004FF0200308D015E04FF00A0CB2FBFCF87D
:103E20000CFB182C4246E4E73FB1002A05DD521E88
:103E300003E0884200D80370401CB2F1000CA2F1EC
:103E40000102F6DC27B1884201D80770521E401CDF
:103E5000ED0605D508E0884201D880F80090401CA6
:103E6000151EA2F10102F6DC302703E0884200D8DB
:103E70000770401C3546761EA542F7DC05E08842F7
:103E800002D81EF804500570401C251EA4F1010440
:103E9000F5DC03E0884200D80370401C141EA2F138
:103EA0000102F7DC04B0BDE8F08F2DE9FF4F83B0CD
:103EB00082460AEB01077F1E5446A74201D24FF00B
:103EC000FF374FF020094FF0250B16E1252804D0CD
:103ED000BC4200D82070641C0CE100250599491CE7
:103EE000059108782D2814D02B2815D0202816D01D
:103EF000232817D0302818D04FF0FF384646059AAF
:103F00001278303A0A2A13D205A800F092F9064630
:103F10001AE045F01005E1E745F00405DEE745F05D
:103F20000805DBE745F02005D8E745F00105D5E7B2
:103F30002A2809D1491C0591069840C80690002EF0
:103F400002DA764245F01005059801782E291CD139
:103F5000401C05900178A1F130020A2A08D205A878
:103F600000F067F980460BE05800002085F100085A
:103F70002A2905D1401C0590069850F8048B06901C
:103F8000B8F1000F01DA4FF000080021059A10780F
:103F9000682801D06C2802D10146521C05920A23E0
:103FA000059800786F2871D00CDC632820D004DCE1
:103FB00025286CD058280DD187E0642801D06928C5
:103FC00008D186E0702863D073282FD0752871D06F
:103FD00078287CD0BC4201D884F800B0641C0599D4
:103FE0000878002868D0BC4200D82070641C81E0AA
:103FF000E80605D507E0BC4201D884F80090641CAF
:10400000761E002EF7DC069810F8041B0690C8B246
:10401000BC4200D82070641C04E0BC4201D884F883
:104020000090641C761E002EF7DC63E0069808C83A
:10403000069003B989A31846FFF71DFEB8F1000FDB
:1040400002DD404500DD4046E90605D508E0BC42FA
:1040500001D884F80090641C3146761E8142F6DC5B
:10406000002106E0BC4201D81A782270641C5B1C57
:10407000491C8142F6DB04E0BC4201D884F8009080
:10408000641C3146761E8142F6DC33E01BE014E00E
:10409000701C02D1082645F00105CDE9006806989C
:1040A0000295102304C8069039462046FFF76CFE9F
:1040B00004461FE00FE00AE028E0BC4201D884F883
:1040C00000B0641C16E0082305E045F0400510230D
:1040D00001E045F002056C291BD068291DD0069827
:1040E00004C80690CDE90068394620460295FFF7DE
:1040F0004BFE04460598401C059005980078002862
:104100007FF4E4AEBC4211D8207010E0491E059146
:10411000F0E7069804C80690E4E7069830F8041B18
:1041200006908AB2A807DDD512B2DBE73870A4EB9F
:104130000A0007B0B7E60FB408B503AB00937F21C0
:104140004848029AFFF7B1FE4648FDF7BCFA01B0B5
:104150005DF814FB08B544A0FFF7EDFF45A0FFF79D
:10416000EAFF4DA003230090002219464DA0FFF75F
:10417000E2FFBDE8084053A0DDE70FB410B505AB82
:10418000049AFFF792FE10BC5DF814FB17B40A46C0
:10419000029B03B04FF0FF3110BC86E60FB410B5A0
:1041A00004AA0399FFF7F2FFEDE710B5002801D04C
:1041B000FDF789FA10BD10B5C91C21F00304C01C1D
:1041C00020F00300204400F0EFF800280BD0611E1F
:1041D000084201D1011903E00219521E22EA01012D
:1041E00041F8040C084610BD50F8040C00F05AB910
:1041F000002807D03E4910F0FF0F05D0C0B2085C80
:10420000401C70470020704710F47F4F04D0C0F36B
:104210000720085C0930704710F47F0F04D0C0F30A
:104220000740085C1130704701EB106000781930CE
:10423000704710B5024600206FF02F0407E04B1CBA
:104240001360097800EB800004EB4000084411681B
:104250000B78303B0A2BF2D310BD0000284E554C92
:104260004C29000094B800200A205C207C202F0AF2
:10427000000000002D205254202D2020202020540A
:104280006872656164204F7065726174696E672041
:1042900053797374656D0A0041756720313220329D
:1042A00030323000202F207C205C20202020202550
:1042B000642E25642E2564206275696C6420257344
:1042C0000A0000002032303036202D2032303138C4
:1042D00020436F7079726967687420627920727404
:1042E0002D746872656164207465616D0A00000058
:1042F00074F0000830B5CD4C41682268114402F1D9
:10430000080388420DD04D885DB96568A94208D080
:10431000A5688D4200D1A0604D6845604968851A46
:10432000CD508168114481420BD04D88002D08D1B9
:10433000A568854200D1A16044684C604068891A34
:10434000C15030BD70B505460A46E81C20F0030197
:1043500022F00303182B21D9A3F118048C421DD39A
:10436000B24C5A1A183AE26021604FF4F5530B80B0
:104370000C324A60002088604880486808446060C9
:104380000380012141804260826000230122A8A1B4
:10439000A948FEF720FE2068A06070BD2946BDE850
:1043A0007040A6A0FFF7C7BE2DE9F047002809D04E
:1043B000C01C20F003059D4EF068854204D9002002
:1043C000BDE8F0870020FBE70C2D00D20C254FF054
:1043D000FF319948FEF737FEB7683168781AD6F88A
:1043E0000CC0ACEB050356E00C1862888ABB62680F
:1043F000121A0C3AAA424DD3626805F11803121A38
:104400000C3A4FF001094FF4F5589A4222D3431960
:104410000C33CA18A2F800804FF0000AA2F802A0DC
:10442000D4F804A0C2F804A090606360A4F80290DD
:1044300050680CF10C0C604502D001F10802835069
:10444000306928440C303061726982420ED270614A
:104450000CE01FE0A4F802906068621A801A3269CA
:10446000104430617269824200D27061A4F8008009
:10447000BC4203D008E040680844B060B06842889D
:1044800012B172689042F6D16B48FEF715FE04F146
:104490000C0095E760688342A6D86748FEF70CFEDB
:1044A00000208DE770B5002833D0604D2968884220
:1044B0002FD3696888422CD2A0F10C044FF0FF3151
:1044C0005D48FEF7C0FD60884FF4F55610B12088B6
:1044D000B04208D068A0FFF72EFE238862882146EC
:1044E0006CA0FFF728FE002060802680A868844228
:1044F00000D2AC6029686068611A401A2969081AFC
:1045000028612046FFF7F6FEBDE870404A48FEF7F6
:10451000D3BD70BD2DE9F0410646C91C21F003044E
:10452000424FF868844202D90020BDE8F08184B18E
:10453000A6B14FF0FF314048FEF785FD3A6896423C
:1045400002D3786886420DD33B48FEF7B5FD30466E
:10455000EBE73046FFF7A6FF0020E6E72046BDE880
:10456000F04121E7A6F10C01A1EB020C4868A0EB99
:104570000C050C3DA54204D12F48FEF79DFD3046A9
:10458000D3E704F11800A8421FD23B69281B181A70
:1045900038610CEB04030C33D0184FF4F55404804D
:1045A000002444804C684460C0F808C04B60FC683C
:1045B00041680C34A14201D008328B50FFF79AFEBB
:1045C0001D48FEF779FD3046AFE71B48FEF774FD46
:1045D0002046FFF7E9FE074657B1A54200D22C4618
:1045E000224631463846FFF701FB3046FFF75AFFB7
:1045F00038469AE770B548430446FFF7D5FE0546AE
:1046000025B1224600212846FFF7E6FA284670BD6C
:1046100010B5064B002801D0DC68046009B11869A8
:104620000860002A01D05869106010BD5C000020AD
:10463000686561700000000014B900206D656D2090
:10464000696E69742C206572726F72206265676989
:104650006E206164647265737320307825782C2035
:10466000616E6420656E642061646472657373209A
:10467000307825780A000000746F20667265652026
:104680006120626164206461746120626C6F636B9D
:104690003A0A00006D656D3A203078253038782C64
:1046A000207573656420666C61673A2025642C2050
:1046B0006D6167696320636F64653A2030782530E7
:1046C00034780A0070470021554A02EB01131B7829
:1046D000834202D102EB01107047491C0829F4DB28
:1046E000002070472DE9F04104460D461746284644
:1046F000FFF7E9FF064645F0800020741022394696
:104700002046FFF7F3FA00F0BFFC054604F1140160
:10471000301D00F075F82846BDE8F04100F0B8BC47
:1047200070B5044600F0B0FC054604F1140000F03A
:104730006EF82846BDE8704000F0AABC2DE9F041B3
:1047400006460F463046FFF7BEFF0546E868FFF70E
:104750002BFE0446ACB1267400206074102239464A
:104760002046FFF7C3FA00F08FFC064604F114015F
:10477000281D00F045F8304600F08AFC2046BDE8D0
:10478000F0810020FBE770B5044600F07DFC054693
:1047900004F1140000F03BF8284600F079FC2046B4
:1047A000BDE87040FFF77EBE007C000601D5012009
:1047B0007047002070472DE9F04107460C46002F56
:1047C00001D00B2C01D90020D9E700F0CBF820460E
:1047D000FFF779FF4468051D08E0A4F114061022D4
:1047E00039463046FFF795FA30B12468AC42F4D12F
:1047F00000F0C3F80020C2E700F0BFF83046BEE783
:104800000268516002680A60016048607047D0E940
:1048100000215160D0E900121160406000607047D3
:104820007400002010B5614B00245C800020604AB9
:1048300002EBC00149600960401C0828F8DB072032
:1048400018705C609C6059480C304060006010BD7E
:1048500010B5564CA068FFF7CBFC401E544951F8E8
:1048600030001C386060BDE81040243000F041BCCE
:1048700070B500F009FC05464C4C608820B1284614
:10488000BDE8704000F004BCA068FFF7B1FC421E18
:10489000474850F832101C396068814216D02270A7
:1048A0006160444A127842B12431243000F0F3FBB5
:1048B0002846BDE8704000F0EBBB2431243000F006
:1048C000EAFB2846BDE8704000F0E2BB2846BDE8A0
:1048D000704000F0DDBB10B5044600F0D5FB024689
:1048E00014F83C0F20F00F00401C20706078304915
:1048F0003C3C01EBC00104F11C004B6818604B68A4
:104900004360486001602948216C836819438160D5
:10491000BDE81040104600F0BBBB70B5054600F086
:10492000B3FB014605F11C04D4E900205060D4E932
:10493000000210606460246095F83D001C4A02EBA0
:10494000C0000268824201D1012000E0002020B1B5
:1049500016482B6C82689A438260BDE87040084616
:1049600000F096BB10B500F08FFB104A5188491C2F
:104970005180BDE8104000F08BBB10B500F084FB07
:104980000A4A5188491E09B25180002906DC0021DB
:10499000518000F07DFBBDE8104069E7BDE81040A4
:1049A00000F076BB0148408880B27047F4000020D8
:1049B0003CB900205400002070B5F948046800F0AC
:1049C00063FB05462046FFF7A8FF042084F83C005F
:1049D00004F1540000F028FA2046FFF7E5FE012814
:1049E00002D1D4F8880058B104F11C01ED4800F060
:1049F000D0F9284600F04CFBBDE87040FFF738BF07
:104A00002046FFF78DFEF4E710B504466FF0010075
:104A1000A06304F11C0000F0C9F92046FFF75BFF1A
:104A2000BDE81040FFF724BF2DE9FC411F46DDE93A
:104A30000A65DDE90831044604F11C0040600060AD
:104A400024346260A760E36021610A46232118468E
:104A5000FFF7C2F8D4E903014218121FAFF2A7030F
:104A6000D4E9010100F088FB2060A676667600207C
:104A7000E061A562E562606120766066A066243C24
:104A800000902346AFF27F020190214604F15400CA
:104A900000F0B5F90020BDE8FC812DE9FF5F8146FB
:104AA000DDE90E76DDE91054884692469B46424683
:104AB00000214846FFF716FECDE90076CDE9025405
:104AC0005B46524641464846FFF7AEFF04B0BDE89C
:104AD000F09FB3480068704770B5044694F83C00F6
:104AE00000F00F00022802D04FF0FF3070BD00F040
:104AF000CBFA054604F11C0000F058F904F154000B
:104B000000F030FA284600F0C3FA2046FFF7E3FE33
:104B1000002070BD10B53C308178417001228A4080
:104B20004260022100F83C19FFF7D6FFFFF7D1FFE2
:104B300008B1FFF79DFE002010BD70B5044694F843
:104B40003C00000702D02046FFF7E7FE04F15400C6
:104B500000F06AF9042084F83C002046FFF7E0FDED
:104B6000D4F8880050B100F08FFA054604F11C011A
:104B70008C4800F00EF9284600F08AFA002070BD3B
:104B80002DE9FF478046DDE90C67894692461D46C0
:104B900041460020FFF7D2FD044620000FD02846F2
:104BA000FFF702FC68B18DE8E10053464A464146F2
:104BB0002046FFF739FF204604B0BDE8F08700200B
:104BC000FAE72046FFF7DFFD0020F5E770B5044661
:104BD00094F83C00000702D02046FFF79EFE04F147
:104BE000540000F021F9042084F83C0000F04CFA55
:104BF000054604F11C016B4800F0CBF8284600F094
:104C000047FA002070BD70B500F03EFA06466448D1
:104C1000046894F83C0000F00F0001281AD1D4E990
:104C20000701884216D004F11C00054600F0BEF8CA
:104C300094F83D005C4901EBC00041680D6041689B
:104C4000696045602860304600F022FAFFF710FEE8
:104C5000002070BD304600F01BFA002070BD70B51A
:104C6000044694F83C0000F00F00012802D04FF0F9
:104C7000FF3070BD00F008FA054694F83C0020F0C3
:104C80000F00801C84F83C002046FFF746FE04F12C
:104C9000540000F067F9284600F0FAF9002070BDD2
:104CA000F1B500F0F1F905463D4804682046FFF7EC
:104CB000D6FF04F154006A460021064600F069F967
:104CC000304600F0E8F8284600F0E2F9FFF7D0FDA2
:104CD000A06B801C00D1A0630020F8BDE0E72DE9A7
:104CE000F04104461546002924D0012926D0022986
:104CF00011D100F0C9F9074694F83C00012600F0F4
:104D00000F0001280AD0287884F83D0086402664E8
:104D1000384600F0BDF90020BDE8F0812046FFF7DD
:104D2000FCFD287884F83D00864026642046FFF785
:104D3000D2FDEDE72046BDE8F041EBE62046BDE8B8
:104D4000F04143E72DE9F0410746FFF7C2FE08B105
:104D5000FFF708FE0020FFF7B6FC4468051D08E0D9
:104D6000A4F11406102239463046FEF7D2FF48B1AE
:104D70002468AC42F4D1FFF7ACFE08B1FFF7FDFDAB
:104D80000020C9E7FFF7A5FE08B1FFF7F6FD3046A2
:104D9000C2E70268516002680A60016048607047BB
:104DA000F8000020000100203CB90020D0E90021DB
:104DB0005160D0E90012116040600060EFE7000030
:104DC00010B5029C24F00104447441628262002107
:104DD0000163C36200EBC1021C3252601260491CC5
:104DE0000129F7DB10BD10B50446204600F032F96A
:104DF00010B14FF0FF3010BD2068406910BD2DE9A3
:104E0000F8430746DDE9088415461E460A4609218F
:104E10003846FFF767FC4346324629463846009439
:104E2000FFF7CEFFBDE8F88370B5054600F02CF91A
:104E30000446284600F015F9204600F029F92846D6
:104E4000FFF76EFC002070BD2DE9F8430E46089D6B
:104E50001746984601460920FFF770FC044644B106
:104E600043463A46314620460095FFF7A9FF2046C3
:104E7000D8E70020D6E770B5054600F005F90446EE
:104E8000284600F0EEF8204600F002F92846FFF729
:104E90007AFC002070BD2DE9F843044600F0F4F8D8
:104EA0000546204600F0DDF8607C20F001006074CB
:104EB000284600F0EDF8FDF750FFE16A0844206352
:104EC00000F0E2F80746DFF8BCC1CDF800C00022D0
:104ED0006E460CEBC20045680DE00068A0EBC20115
:104EE000236B4969994204D0C91A6FF00043994273
:104EF00005D346F8220056F82200A842EDD12AB187
:104F000056F822100831531C46F82310521C002A70
:104F1000DFD05C48001FD0F8008008F10108C0F81D
:104F2000008004F11C01009800F08DF802250EE0CD
:104F30005FEA88700DD1C5F1010004EBC0011C319E
:104F400056F8200000F07FF84FEA98086D1C012DFC
:104F5000EED9607C40F001006074384600F098F8AB
:104F600000205FE770B50446607CC0070ED000F0FB
:104F70008BF80546204600F074F8284600F088F8C3
:104F8000607C20F001006074002070BD4FF0FF30A5
:104F900070BD002909D0012904D0022908D00329B5
:104FA0000FD10AE0C06A10600BE01168C16208E02E
:104FB000417C21F00201417403E0417C41F0020197
:104FC00041740020704770B5FDF7C7FE064600F03B
:104FD0005BF8054620E02B4804681C3C6FF000415C
:104FE000206B301A88421CD2204600F03AF8D4E9EF
:104FF00009108847FDF7B1FE0646607C810708D599
:10500000C10706D020F0010060742046FFF743FF7F
:1050100002E020F0010060741A4800F01BF800283C
:10502000D9D02846BDE8704000F032B81548DAE61D
:105030000020144A02EBC00149600960401C0028AE
:10504000F8D0704770470268516002680A600160DA
:10505000486070470168814201D1012070470020FB
:10506000704710B5002200EBC2011C31D1E90043AA
:105070006360D1E90034236049600960521C012A51
:10508000F1DB10BD0C010020EFF3108072B6704709
:1050900080F310887047324A1368012B04D04FF018
:1050A000010313602F4A10602F4A11602F484FF000
:1050B000805101607047EFF3108272B62848016892
:1050C00091B14FF0000101602648016829B1EFF36A
:1050D000098121E9F00F0068016023490968096826
:1050E000B1E8F00F81F3098882F310884EF0040EC6
:1050F00070471D4908601B494FF0000008601849BF
:105100004FF0010008601A484FF47F01D0F80020EA
:1051100041EA0201016015484FF0805101601548D5
:105120000068006880F3088861B662B670471EF0B8
:10513000040F14BFEFF30880EFF3098020E9F00FAC
:1051400040F804ED14BF80F3088880F3098800B5A7
:1051500000F031F85DF804EB4EF0040E70470000EB
:1051600020010020180100201C01002004ED00E0B7
:1051700020ED00E008ED00E070B50646121D22F0BB
:105180000700A0F1400528460022394C40F8224093
:10519000521C102AFAD30162002141628162C1626D
:1051A0000163436386634FF08071C163284670BD1D
:1051B00030490860704770B505462C1D2D480168C0
:1051C000002903D02846884700284DD02AA0E16B4B
:1051D000FEF7B1FF2CA0216AFEF7ADFF2EA0616A99
:1051E000FEF7A9FF30A0A16AFEF7A5FF32A0E16A91
:1051F000FEF7A1FF34A02168FEF79DFF36A061688D
:10520000FEF799FF38A0A168FEF795FF3AA0E16884
:10521000FEF791FF3CA02169FEF78DFF3EA061697A
:10522000FEF789FF40A0A169FEF785FF42A0E16972
:10523000FEF781FF44A0216BFEF77DFF46A0616B66
:10524000FEF779FF48A0A16BFEF775FF28784007AD
:1052500006D5FFF73EFC014647A0FEF76CFF02E0D3
:105260004DA0FEF768FFFEE770BD52A0FEF763BFDA
:10527000EFBEADDE140100207073723A2030782545
:105280003038780A000000007230303A203078253B
:105290003038780A000000007230313A203078252A
:1052A0003038780A000000007230323A2030782519
:1052B0003038780A000000007230333A2030782508
:1052C0003038780A000000007230343A20307825F7
:1052D0003038780A000000007230353A20307825E6
:1052E0003038780A000000007230363A20307825D5
:1052F0003038780A000000007230373A20307825C4
:105300003038780A000000007230383A20307825B2
:105310003038780A000000007230393A20307825A1
:105320003038780A000000007231303A2030782599
:105330003038780A000000007231313A2030782588
:105340003038780A000000007231323A2030782577
:105350003038780A00000000206C723A203078253E
:105360003038780A000000002070633A2030782539
:105370003038780A00000000686172642066617548
:105380006C74206F6E207468726561643A202573B6
:105390000D0A0D0A000000006861726420666175E4
:1053A0006C74206F6E2068616E646C65720D0A0DFE
:1053B0000A00000073687574646F776E2E2E2E0AD3
:1053C0000000000001784278027082784270C27852
:1053D0008270C170704730B5002305E0C45CCD5CBD
:1053E0006C40C4545B1CDBB29342F7D330BD102237
:1053F000F1E710B5002A01D0B24B00E0B24B002219
:1054000004E0845C1C5D8454521CD2B28A42F8D3FE
:1054100010BDF8B501226C46002302EB8305455D03
:10542000E5545B1CDBB2042BF7D311B1C2F10403CA
:1054300000E01346DDB200235E1906F0030602EB1E
:105440008307A65DC6555B1CDBB2042BF4D3521C4C
:10545000D2B2042AE0D3F8BD010602D44006000E01
:1054600070471B2181EA4000C0B27047F8B504467E
:105470000E46002520786178E2784840A1785140B6
:1054800080EA0102FFF7E8FF2178504048408DF89C
:1054900000006078A1784840FFF7DEFF6178504057
:1054A00048408DF80100A078E1784840FFF7D4FF2C
:1054B000A178504048408DF80200E07821784840BB
:1054C000FFF7CAFFE178504048408DF8030056B31B
:1054D0002078A1784840FFF7BFFFFFF7BDFF0246E5
:1054E0006078E1784840FFF7B7FFFFF7B5FF034664
:1054F00082EA0300FFF7B0FF9DF8007080EA020126
:105500004F408DF800709DF80120584042408DF8C2
:1055100001209DF802204A408DF802209DF80310DA
:1055200041408DF80310042269462046FEF75EFBD9
:105530006D1CEDB2241D042D9CD3F8BD70B506463C
:1055400062493046FFF753FF0124604D00221021CD
:105550003046FFF74EFF00213046FFF75AFF0A2C76
:1055600003D000213046FFF781FF05EB04113046E0
:10557000FFF73DFF641CE4B20A2CE7D970BD2DE9AA
:10558000F041074651493846A031FFF730FF0A2461
:105590004E4E01213846FFF73CFF012210213846CC
:1055A000FFF727FF611E0D4606EB01113846FFF796
:1055B0001EFF012C03D001213846FFF757FFECB244
:1055C000002CE6D1BDE8F08138B50C4640A1096851
:1055D0000091014610223D48FEF708FB2CB13B48E4
:1055E00010222146B030FEF701FB384C1034042560
:1055F0000422211F2046FEF7F9FAA80712D12046FF
:10560000FFF7E0FE002204212046FFF7F2FE04220D
:1056100069462046FFF7DFFE9DF80000FFF71CFFFC
:105620008DF800000422A4F110012046FFF7D3FEFC
:10563000241D6D1CEDB22C2DDAD338BD7FB5044688
:105640000E46154621491022B0316846FEF7CEFAC3
:10565000AC4204D0324621462846FEF7C7FA340948
:105660000AE02846FFF76AFF102229466846FEF73F
:10567000BDFA641EA4B21035002CF2D17FBD0246E3
:10568000DCE77FB506460C46154610491022B031BE
:105690006846FEF7ABFAB54204D0224631462846AA
:1056A000FEF7A4FA2544103D240905E02846FFF73B
:1056B00066FF641EA4B2103D002CF7D17FBD0246E8
:1056C000DFE7000096F2000896F100087CB90020A0
:1056D000010000002DE9F047002700253AE00026F0
:1056E00008E04FEA042CC45D44EA0C047F1C3FB27E
:1056F000761C76B2032E01DA8F42F2DB012E02D045
:10570000022E03D101E0240400E02402ED1C2DB29E
:105710004FF0000CDFF8A4924FF03D08032E07DA9B
:10572000A40902F805806D1E2DB2761C76B208E041
:1057300004F03F0A19F80AA002F805A0A4096D1E9A
:105740002DB20CF1010C4FFA8CFCBCF1040FE5DB1F
:105750006D1D2DB28F42C2DB002050551D80BDE86B
:10576000F0872DE9F047002700253AE0002608E001
:105770004FEA042CC45D44EA0C047F1C3FB2761C43
:1057800076B2032E01DA8F42F2DB012E02D0022E16
:1057900003D101E0240400E02402ED1C2DB24FF0FF
:1057A000000CDFF818924FF03D08032E07DAA40929
:1057B00002F805806D1E2DB2761C76B208E004F06A
:1057C0003F0A19F80AA002F805A0A4096D1E2DB21F
:1057D0000CF1010C4FFA8CFCBCF1040FE5DB6D1DE4
:1057E0002DB28F42C2DB002050551D80B7E72DE956
:1057F000F0414FF0000C002767E0002500243FE057
:1058000010F80C60A6F14108B8F1190F06D8A601EE
:1058100008F03F0434436D1C6DB22DE0A6F1610821
:10582000B8F1190F09D84FEA8418F61F06F03F04A3
:1058300044EA08046D1C6DB21EE0A6F13008B8F110
:10584000090F09D84FEA8418361D06F03F0444EAD0
:1058500008046D1C6DB20FE02B2E02D02F2E06D047
:105860000AE0A40144F03E046D1C6DB204E0A40102
:1058700044F03F046D1C6DB20CF1010C0FFA8CFC6E
:10588000042D01DA8C45BBDB022D04D0032D07D09B
:10589000042D1AD10CE02409D4557F1C3FB214E02A
:1058A000A408D5196C70240AD455BF1C3FB20CE073
:1058B000BF1C3DB2002654556D1E2DB2240A761C25
:1058C00076B2032EF7DB2D1D2FB28C4595DB002021
:1058D000D0551F80BDE8F0812DE9F0414FF0000C5C
:1058E000002767E0002500243FE010F80C60A6F1D7
:1058F0004108B8F1190F06D8A60108F03F04344357
:105900006D1C6DB22DE0A6F16108B8F1190F09D830
:105910004FEA8418F61F06F03F0444EA08046D1CA1
:105920006DB21EE0A6F13008B8F1090F09D84FEAB0
:105930008418361D06F03F0444EA08046D1C6DB25D
:105940000FE02B2E02D02F2E06D00AE0A40144F047
:105950003E046D1C6DB204E0A40144F03F046D1CD4
:105960006DB20CF1010C0FFA8CFC042D01DA8C45A0
:10597000BBDB022D04D0032D07D0042D1AD10CE07F
:105980002409D4557F1C3FB214E0A408D5196C70CB
:10599000240AD455BF1C3FB20CE0BF1C3DB2002608
:1059A00054556D1E2DB2240A761C76B2032EF7DBF9
:1059B0002D1D2FB28C4595DB1F808BE796F30008D9
:1059C000FE488068704770B504460D46002C01D033
:1059D0002DB10AE00DB1012070BD002070BD012085
:1059E00070BD207898B1641C6D1C207807F0C0FC55
:1059F0000646287807F0BCFC8642F2D0207807F0F3
:105A0000B7FC0446287807F0B3FC201A70BD0020CC
:105A100070BD70B50646304607F0FCFC451CE74BF0
:105A200028461B689847040006D02A46314620467F
:105A300007F0A4FC204670BD002070BDDF4A00289E
:105A400002D0016831B904E0DD481060DD485060E3
:105A50007047DB491160406800B9DA485060704710
:105A600010B5D64928200968884704461CB128216A
:105A7000204607F09CFC204610BD70B50446CF4E72
:105A800019E02568A089C00503D4A06808B1FFF714
:105A9000F4FFA089C00503D4206908B17168884764
:105AA000A089800503D4206A08B1716888477168AD
:105AB000204688472C46002CE3D170BD2DE9F34FDA
:105AC00085B08A4600242546BF490020CDE9020161
:105AD000002637468346012001909AF800002D28C1
