:020000040800F2
:1000000098E60020450100084D010008EF51000866
:1000100051010008530100085501000800000000CC
:100020000000000000000000000000005701000870
:10003000590100080000000077510008CD150008A4
:100040005F0100085F0100085F0100085F01000810
:100050005F0100085F0100085F0100085F01000800
:100060005F0100085F0100085F0100085F010008F0
:100070005F0100085F0100085F0100085F010008E0
:100080005F0100085F0100085F0100085F010008D0
:100090005F0100085F0100085F0100085F010008C0
:1000A0005F0100085F0100085F0100085F010008B0
:1000B0005F0100085F0100085F0100085F010008A0
:1000C0005F0100085F0100085F0100085F01000890
:1000D0005F0100085F010008E72C00085F010008CD
:1000E0005F0100085F0100085F0100085F01000870
:1000F0005F0100085F0100085F0100085F01000860
:100100005F0100085F0100085F0100085F0100084F
:100110008F7300085F0100085F0100085F0100089D
:100120005F0100085F0100085F0100085F0100082F
:10013000DFF80CD00DF0AEFF004800470B2F000891
:1001400098E600200648804706480047FEE7FEE79D
:10015000FEE7FEE7FEE7FEE7FEE7FEE7FEE7FEE777
:1001600011020008310100080CB500220192009232
:100170005248016841F4803101604FF4A063016886
:1001800001F4003100910199491C0191009911B9C4
:1001900001999942F3D10168890302D501210091A7
:1001A00000E000920099012930D145490A6842F0E7
:1001B00010020A600A6822F003020A600A6842F02C
:1001C00002020A604168416041684160416841F44F
:1001D00080614160416821F47C114160416841F4D3
:1001E000E8114160016841F0807101600168890196
:1001F000FCD5416821F003014160416841F00201F2
:1002000041604168C1F381010229FAD10CBDABE71D
:1002100010B52A48016841F0010101604168294A8E
:10022000114041600168284A11400160016821F4D1
:1002300080210160416821F4FE0141604FF41F01FB
:100240008160FFF7E4FF21494FF00060086010BDB6
:1002500010B51A4A506800F00C011D4B1D480029CA
:100260000ED004290ED008290ED003605168194A17
:10027000C1F30311121D515C0268CA40026010BD37
:100280000360F3E70360F1E7516801F4701153680C
:1002900003F48033022404EB914133B153689B0390
:1002A00007D50D4B59430160E0E70B4B5943016003
:1002B000DCE7074B59430160D8E70000001002401B
:1002C000002002400000FFF8FFFFF6FE08ED00E00E
:1002D00000127A000000002000093D002A4908436E
:1002E0002A490860704770B50F23C278012601784B
:1002F000002A1ED0254A126802F4E062C2F5E062CC
:10030000120AC2F10404D3404578A54082781A400D
:100310002A43120101F1E02181F80024007800F065
:100320001F018E404009800000F1E020C0F800610C
:1003300070BD01F01F0086404809800000F1E020F8
:10034000C0F8806170BD124A114001430F48001F80
:10035000016070470D4A121D002903D01168014346
:100360001160704711688143116070474FF0E021C0
:10037000042804D0086920F0040008617047086967
:1003800040F00400086170470000FA050CED00E041
:1003900080FFFF1F10B5012000F003FDBDE81040F5
:1003A000002000F0FEBC2049086070471E49091F6C
:1003B000086070471C498431086070471B4A1188E7
:1003C00021F46071014311807047184A118821F0AF
:1003D0007F0101431180704708B5144A2C3A10443C
:1003E00000900098016008BD08B510492C390844F8
:1003F00000900098008808BD0B489C300068C0B28F
:1004000070470A480830018841F0010101807047B7
:100410000548A0300068C0B2704704480830018821
:1004200041F002010180704704860D422C6C0040AF
:1004300010B59C49884209D10121042000F09BFCA1
:100440000021BDE81040042000F095BC9649884288
:1004500009D10121082000F08EFC0021BDE81040E8
:10046000082000F088BC9149884209D10121102060
:1004700000F081FC0021BDE81040102000F07BBCA2
:100480008B49884209D10121202000F074FC002111
:10049000BDE81040202000F06EBC8649884209D19A
:1004A0000121402000F067FC0021BDE81040402001
:1004B00000F061BC8049884209D10121802000F010
:1004C0005AFC0021BDE81040802000F054BC7B495C
:1004D00088420AD184150121204600F04CFC2046B8
:1004E000BDE81040002100F046BC10BD10B5012150
:1004F000084600F040FC0021BDE81040012000F05B
:100500003ABC2DE9F0410022CC7804F00F03E40658
:1005100001D58C7823430C784FF00F0714F0FF0FB0
:100520004FF0010C1CD005680CFA02F40E8826402E
:10053000A64211D1960007FA06F825EA080503FA43
:1005400006F848EA0505CE78282E02D0482E02D0BB
:1005500002E0446100E00461521C082AE4D3056013
:100560000A88FF2A1ED94568002202F108060CFA03
:1005700006F40E882640A64210D1960007FA06F827
:1005800025EA080503FA06F848EA0505CE78282E7C
:1005900000D14461CE78482E00D10461521C082A53
:1005A000E3D34560BDE8F0814FF6FF710180022181
:1005B00081700421C17070470246002092680A428F
:1005C00000D001207047806880B27047024600204A
:1005D000D2680A4200D001207047C06880B27047DC
:1005E0000161704741617047002A01D00161704785
:1005F00041617047C160704741F48032826181611E
:10060000826181698069704710B52D4B1A684FF679
:100610008074224042EA00100843186010BD294946
:10062000C8617047F0B5264C002801DAE36900E0A4
:100630006368C0F30346420D120185B2C0F301574F
:100640009540032F07D0C2020CD50322B24093433A
:1006500043F0706209E023F07062636823F0706316
:10066000636002E0AB4343F0706201B12A430028AB
:1006700001DAE261F0BD6260F0BD10B58A07120FC9
:100680000F23934021F003040D4921448C689C43BF
:100690008C608B68904003438B6010BD0949DC314E
:1006A0000860704700080140000C01400010014044
:1006B0000014014000180140001C014000200140CE
:1006C000000001400000204210B5E04988420AD1F4
:1006D00001214C05204600F059FB2046BDE81040A2
:1006E000002100F053BB01218C05204600F04EFB99
:1006F0002046BDE81040002100F048BB70B586B030
:1007000004460D46A08820F03F0601A800F0C5FA77
:100710000398CF49B0FBF1F189B20E43A68022883D
:1007200022F001022280CB4B2A689A4209D852005B
:10073000B0FBF2F080B2042800D20420491C2184CE
:1007400023E0EB88A3F53F46FF3E0BD002EBC2034C
:1007500003EB0212B0FBF2F080B240F480400205DD
:1007600006D007E002EB4202B0FBF2F080B2F6E7FF
:1007700040F0010040F400404FF4967251434FF4B2
:100780007A72B1FBF2F1491C2184A083208840F0E9
:100790000100208020884FF6F5310840A9886A8939
:1007A000114301432180A88929890843208106B08B
:1007B00070BD41F288310160002181804BF6FF72EB
:1007C000C280018141814FF48041818170470029BD
:1007D00004D0018841F0010101807047018821F0B7
:1007E000010101807047002904D0818841F4006133
:1007F00081807047818821F40061818070470029E1
:1008000004D0818841F4805181807047818821F42F
:10081000805181807047002904D0018841F48071A3
:1008200001807047018821F48071018070470029A0
:1008300004D0018841F4007101807047018821F4DF
:10084000007101807047002904D0018841F4806163
:1008500001807047018821F480610180704782899E
:1008600022F0FE0201F0FE01114381817047002950
:1008700004D0818941F0010181817047818921F093
:10088000010181817047002904D0018841F04001B5
:1008900001807047018821F0400101807047002AE3
:1008A00003D082880A438280704782888A4382808C
:1008B000704701827047008AC0B27047002A02D098
:1008C00041F0010101E001F0FE010182704708B52D
:1008D00000900098084400900098008808BD002906
:1008E00004D0018841F40041018070470188C1F3C0
:1008F0000E0101807047B1F5006F04D0018821F42A
:10090000006101807047018841F4006101807047F7
:10091000B1F5005F04D0018821F4005101807047D7
:10092000018841F4005101807047002904D00188FA
:1009300041F4805101807047018821F48051018089
:100940007047B1F5006F04D0018821F40061018087
:100950007047018841F4006101807047002904D08C
:10096000018841F0200101807047018821F02001B9
:1009700001807047008B000A7047002904D001886D
:1009800041F0100101807047018821F010010180C1
:100990007047002904D0018821F080010180704750
:1009A000018841F0800101807047B1F5804F04D08B
:1009B000818B21F4804181837047818B41F4804198
:1009C00081837047034600209A8A1B8B1B041A43BD
:1009D00022F07F42914300D101207047818A008B31
:1009E0000004014321F07F4070470CB5024600200F
:1009F00000920A0F019221F07F41019A002A03D050
:100A0000009A1432009203E0090C009A1832009206
:100A1000009A12680A4200D001200CBDC9438182AD
:100A2000704710B502460020938801F0E06403EAA5
:100A3000144321F07F41928A0A4202D0002B00D059
:100A4000012010BDC943818270470000005400405E
:100A500040420F00A086010010B501210C0720467E
:100A600000F094F92046BDE81040002100F08EB956
:100A70002149086270472049086170471F4A116880
:100A800021F0E0010143116070471B49A03108606B
:100A900070471A4B1A6822F0030202431A60184882
:100AA000026842F004020260012905D020BF0168FB
:100AB00021F004010160704730BFF8E70F4801687A
:100AC00041F004010160016841F0020101600C483D
:100AD000016841F00401016030BF70470146002009
:100AE000064A52680A4200D00120704703490A684A
:100AF00042EA80000860704700000E42007000402B
:100B000010ED00E0B448016841F001010160416866
:100B1000B24A114041600168B14A11400160016868
:100B200021F480210160416821F4FE0141604FF40D
:100B30001F0181607047A8490A6822F480320A6068
:100B40000A6822F480220A60B0F5803F07D0B0F531
:100B5000802F03D1086840F4A0200860704708681F
:100B600040F48030086070470346002059099A4AD3
:100B700001290AD002290AD0516A03F01F02012379
:100B800093400B4200D0012070471168F5E7116ACD
:100B9000F3E718B5002000904FF4A0643120FFF770
:100BA000E3FF0099491C00910099A14201D000285F
:100BB000F4D03120FFF7D8FF08B1012018BD002084
:100BC00018BD854A116821F0F80141EAC0001060A3
:100BD00070478449086070477F4B5A6822F47C1242
:100BE00008431043586070477E49086670477A4A48
:100BF000516821F003010143516070477648406815
:100C000000F00C007047744A516821F0F001014374
:100C100051607047704A516821F4E06101435160AE
:100C200070476D4A516821F4605141EAC00050603C
:100C30007047694A002903D0517A014351727047C5
:100C4000517A8143517270476649D83108607047C4
:100C5000614A516821F440410143516070475E4947
:100C6000002220310A7001F82029012805D004282B
:100C700002D1052081F820007047012081F8200072
:100C8000704759490860704753490A6A02430A622B
:100C90007047554944390860704710B54E4A51684D
:100CA00001F00C01514B002927D0042927D0082935
:100CB00027D00360516801F0F00109094C4B5C5CDE
:100CC0000168E1404160546804F4E064240A1C5D5A
:100CD00021FA04F48460546804F46054E40A1B5D4F
:100CE000D940C160526802F44042920B404B1B1F36
:100CF0009A5CB1FBF2F1016110BD0360DAE70360B9
:100D0000D8E7516801F47011536803F4803302246A
:100D100004EB914133B153689B0307D5354B5943DD
:100D20000160C7E7334B59430160C3E72F4B594379
:100D30000160BFE7284A002903D05169014351618E
:100D400070475169814351617047234A002903D09C
:100D50009169014391617047916981439161704745
:100D60001D4A002903D0D1690143D1617047D1697F
:100D70008143D1617047184A002903D0D1680143EB
:100D8000D1607047D1688143D1607047124A002911
:100D900003D01169014311617047116981431161E9
:100DA000704711494039086070470E49C864704760
:100DB0000949C87170470848416A41F08071416231
:100DC000704701460020044A92680A4200D0012080
:100DD0007047014988727047001002400000FFF818
:100DE000FFFFF6FE000042428004424200127A00F9
:100DF0001800002000093D00434A002903D0118853
:100E000001431180704711888143118070473E482B
:100E1000001D018841F01001018070473A48001D13
:100E2000018821F010010180704737481C3000888C
:100E300035491831098840EA0140704700B502463B
:100E4000FFF7E5FF3049100C18310880081D0280BB
:100E50005DF804EBE2E700B50246FFF7D8FF2A4948
:100E6000C2F3034008310880081D02805DF804EBDE
:100E7000D4E700B50246FFF7CAFF2349100C203122
:100E80000880081D02805DF804EBC7E71E4810309B
:100E900000880007010B1C48143000880843704785
:100EA0001948001D01888906FCD570471648001DA9
:100EB000018821F00801018001880907FCD57047ED
:100EC00001460020104A121D12880A4200D001205B
:100ED00070470D49091D0A8882430A8070470A49F4
:100EE000091D0988C2B21140074A1288024202D085
:100EF00009B101207047002070470349091D0A8885
:100F000082430A80704700000028004010B5A949BC
:100F100088420AD1841401212046FFF72CFF204685
:100F2000BDE810400021FFF726BFA34988420AD13F
:100F3000041401212046FFF729FF2046BDE8104098
:100F40000021FFF723BF9D4988420AD1C413012124
:100F50002046FFF71BFF2046BDE810400021FFF7A9
:100F600015BF10BD30B5028802F441530A884C8881
:100F7000CD8822438C882C4322430C8922434C8900
:100F800022438C892243CC8922431A430280828BDC
:100F900022F400628283098A018230BDF0B585B0F7
:100FA00005460C46022000210126AA8B4FF2400381
:100FB0001A40AA8302222A84AF8BA268022A21D077
:100FC000A08800B102266846FFF767FE0098E18816
:100FD000B1F5007F2CD07101B0FBF1F000EB800087
:100FE000A1684000B0FBF1F0401D80B20A21B0FBC7
:100FF000F1F000F00101401AC0F34F004FF6FF720C
:1010000002EA0121821EFE2A01D302200021E28889
:10101000084302432A8420886188A2890843A18862
:1010200011430843384340F40060A88305B0F0BD85
:10103000000A00EB8000A1684000B0FBF1F0401D09
:1010400080B2D3E70021018041808180C18001818D
:1010500041818181C1810721018270470021018086
:1010600041808180C1800222826081817047002995
:1010700004D0018841F0400101807047018821F0CF
:10108000400101807047002904D0818B41F48061C8
:1010900081837047818B21F48061818370470909C6
:1010A00001238B4099B2002A03D082880A438280B0
:1010B000704782888A4382807047002A03D08288E2
:1010C0000A438280704782888A4382807047818188
:1010D000704780897047A1F57E42FF3A04D00188AD
:1010E00041F4807101807047018821F48071018092
:1010F0007047002904D0818841F004018180704745
:10110000818821F0040181807047028822F4006206
:10111000028002880A4302807047018841F48051AE
:1011200001807047002904D0018841F400510180FA
:101130007047018821F4005101807047012901D0D6
:10114000008B7047808A7047008A7047B1F5804FE6
:1011500004D0018821F4804101807047018841F466
:101160008041018070470246002012890A4200D067
:1011700001207047C9430181704730B50246002005
:1011800001F00F03012505FA03F4A3B2090905FADA
:1011900001F4A4B29188214012891A4202D0002998
:1011A00000D0012030BD01F00F0201219140C94360
:1011B000018170470030014000380040003C004091
:1011C00010B5E14988420AD101218C032046FFF77E
:1011D000D2FD2046BDE810400021FFF7CCBDDB4921
:1011E00088420AD101214C042046FFF7CFFD20465A
:1011F000BDE810400021FFF7C9BDD54988420AD19A
:1012000001218C042046FFF7C1FD2046BDE81040B7
:101210000021FFF7BBBDCF4988420AD10121CC0490
:101220002046FFF7B3FD2046BDE810400021FFF740
:10123000ADBDC94988420AD101210C052046FFF7FE
:10124000A5FD2046BDE810400021FFF79FBD10BD61
:1012500030B585B004460D46208A4CF6FF71084033
:10126000E98801432182A0894EF6F3110840A9883C
:101270002A8911436A8902431143A181A08A4FF64A
:10128000FF410840A9890143A1826846FFF705FD97
:10129000AD48844201D1039800E00298A189090475
:1012A00008D500EBC00101EB001029684900B0FB34
:1012B000F1F007E000EBC00101EB001029688900A4
:1012C000B0FBF1F06422B0FBF2F109010B096FF001
:1012D00018056B4300EB8300A3891D044FF0320314
:1012E00007D503EBC000B0FBF2F000F007000843A5
:1012F00006E003EB0010B0FBF2F000F00F00084333
:10130000208105B030BD4FF416510160002181806D
:10131000C18001810C2242818181704710B5038A0E
:101320004FF2FF0213400A884C8822438C88C988F8
:101330000C4322431A43028210BD002101804180E8
:101340008180C1807047002904D0818941F4005117
:1013500081817047818921F400518181704710B5E6
:1013600040F66A13C1F3421301F01F040121A140AA
:10137000012B07D0022B07D014303AB102680A4380
:10138000026010BD0C30F8E71030F6E702688A43BF
:10139000026010BD002A03D0828A0A43828270470D
:1013A000828A8A4382827047028A22F00F02028276
:1013B000028A0A4302827047828922F40062828193
:1013C00082890A4382817047002904D0818941F0D3
:1013D000020181817047818921F00201818170477A
:1013E000028A22F020020282028A0A4302827047A5
:1013F000002904D0018A41F4804101827047018AAA
:1014000021F4804101827047C1F308018180704757
:101410008088C0F308007047818941F00101818113
:101420007047028BD2B20283028B42EA0121018310
:101430007047028B02F47F420283028B0A430283CD
:101440007047002904D0818A41F0200181827047D1
:10145000818A21F0200181827047002904D0818A8D
:1014600041F0100181827047818A21F01001818250
:101470007047002904D0818A41F0080181827047B9
:10148000818A21F0080181827047002904D0818976
:1014900041F40041818170478189C1F30E0181814E
:1014A0007047002904D0818A41F40061818270472D
:1014B000818A21F4006181827047828A22F00402CD
:1014C0008282828A0A4382827047002904D0818AFC
:1014D00041F0020181827047818A21F002018182FC
:1014E00070470246002012880A4200D0012070474F
:1014F0008A05C9430180704770B5002440F66A121E
:10150000C1F3421301F01F05012606FA05F2012B73
:101510000CD0022B0DD0838A1340090A8E4000881C
:1015200030400BB100B10124204670BD83891340C7
:10153000F3E7038A1340F0E740F66A120A0A012132
:101540009140C94301807047003801400044004089
:1015500000480040004C00400050004032487047B6
:101560003248704710B532484FF47A710068B0FBCA
:10157000F1F0B0F1807F0CD220F07F414FF0E020FD
:10158000491E41612B4AF021117000218161072120
:10159000016100F05DF900F09EF905F062FE09F0CE
:1015A000A1F807F0BAFD002000F0B1FE00F077FFCF
:1015B00001F0E2FB01F068FCFFF7D2FF0446FFF701
:1015C000CDFF2146BDE8104002F01CBF10B502F06F
:1015D0001BFB01F02BFCBDE8104002F020BB70B5F6
:1015E000044603F01FFA144D16E00A2809D10D2114
:1015F0002846FFF709FF80212846FFF772FF0028E1
:10160000F9D014F8011B2846FFF7FEFE802128467A
:10161000FFF767FF0028F9D020780028E5D1BDE862
:10162000704003F00ABA0000B8020020B88200201F
:101630000000002023ED00E0003801402DE9FE43CA
:1016400002A800F052FF0146BDF8082051A002F0A8
:10165000D2FD06F023FE002006F086FF00F003FE18
:101660000022052150A001F0D0FF514CA0600022C3
:10167000052150A001F0C9FF2061A06818B14FA05A
:1016800002F0B9FD02E052A002F0B5FD02220023F3
:10169000510253A002F04CF9A06110B152A002F027
:1016A000AAFD00230222012155A002F041F9206287
:1016B00010B14DA002F09FFD00230222012153A092
:1016C00002F036F9A06210B147A002F094FD142593
:1016D0000526CDE900654FF480773B4600224D4951
:1016E0004DA003F0ADFA60604FF0FF38002845D000
:1016F00003F070FACDE900654FF480594B460022A3
:10170000464947A003F09CFAE060002838D003F077
:1017100061FACDE900654B460022434943A003F03E
:101720008FFA606170B303F055FA0720CDE9000528
:101730004B4600223F4940A003F082FAE06118B313
:1017400003F048FACDE900653B4600223B493CA046
:1017500003F076FA2060C8B103F03CFA0620CDE928
:1017600000053B460022374937A003F069FA606262
:1017700070B103F02FFA0020BDE8FE834046FBE77E
:101780004046F9E74046F7E74046F5E74046F3E7CD
:101790004046F1E70A6E756D6265723A693D2564EF
:1017A0002C6E756D3D25640067346D62000000008D
:1017B0002800002067346170706D62000D0A673484
:1017C0006D622073756363657373210A0A000000FC
:1017D0000D0A67346D626661696C210A0A000000B7
:1017E00067346D73676D7100CFFBCFA2B6D3C1D0E4
:1017F000B4B4BDA8B3C9B9A6A3A10A0A00000000E9
:10180000696E707574736967000000006C6F636BBC
:101810006D7100002179000867340000CD7900085F
:10182000673472656300000065790008673473658A
:101830006E0000002B8F000875690000E991000818
:101840006B657900B32D00086C6F636B74680000E2
:1018500038B501210820FFF778FA2020ADF8000004
:1018600010208DF8030003208DF802000F4C69460C
:101870002046FEF746FE0121ADF8001069462046DD
:10188000FEF73FFE0221ADF8001069462046FEF744
:1018900038FE20212046FEF7A3FE01212046FEF758
:1018A0009FFE02212046FEF79BFE38BD000C014042
:1018B00008B54FF4A060FEF711FD25208DF800005B
:1018C00001208DF801008DF802008DF803006846B4
:1018D000FEF709FD08BD10B586B001210420FFF711
:1018E00034FA01218803FFF730FA4FF40070ADF8A5
:1018F000140018208DF8170003208DF816004E4CA8
:1019000005A92046FEF7FDFD2115ADF814100421B0
:101910008DF8171005A92046FEF7F3FD4FF4E130CE
:1019200001900020ADF80800ADF80A00ADF80C00F9
:10193000ADF810000C20ADF80E00404C01A9204677
:10194000FFF786FCFFF7B4FF012240F22551204645
:10195000FFF705FD01212046FFF7F5FC06B010BD9D
:1019600010B504462046FFF74FFD80212046FFF7C3
:10197000B8FD0028F9D010BD2DE9F04107460D460D
:101980001646002405E0295D3846FFF7E9FF641C90
:10199000E4B2B442F7D340213846FFF7A2FD002855
:1019A000F9D0BDE8F08170B506460D4600243046FA
:1019B000295DFFF7D5FF641C285D0028F7D1402181
:1019C0003046FFF78EFD0028F9D070BD70B5054692
:1019D000080ACCB201462846FFF716FD80212846AA
:1019E000FFF77FFD0028F9D021462846FFF70CFDC0
:1019F00080212846FFF775FD0028F9D070BD70B52D
:101A000004460E4DE1B22846FFF7FEFC8021284631
:101A1000FFF767FD0028F9D0204670BD10B5074CD0
:101A200020212046FFF75DFD0028F9D02046BDE8C3
:101A30001040FFF7EDBC00000008014000380140F5
:101A400010B50122F7A1F8480AF03DFB0D2802D09D
:101A5000A8B1022010BD00221146F2A00BF0D5FA69
:101A600008B1012010BD0122EEA100200AF02BFBDD
:101A70000122ECA1EC480AF026FB002010BD00205A
:101A800010BD38B541F2240002F0EEFC04460021FE
:101A9000E6A00AF0D5FF70B11222E4A120460AF0B8
:101AA0004FFB40B96B460722E6A120460AF0EEFC48
:101AB00020460AF04CFE0021E4A00AF0C1FFA0B1CC
:101AC0001222E2A120460AF03BFB70B96B460722C6
:101AD000E4A120460AF0DAFC6B460722E3A1204687
:101AE0000AF0D4FC20460AF032FE0021E1A00AF000
:101AF000A7FF80B11222DFA120460AF021FB50B9D6
:101B0000E0A120460BF0B5FDE1A120460BF0B1FDB0
:101B100020460AF01CFE0021E0A00AF091FF40B12F
:101B20001222DEA120460AF00BFB10B920460AF073
:101B30000EFE204602F016FD38BD70B50446282082
:101B400002F092FC08B1002106E0002070BD0B46B7
:101B5000491CC9B2C254641C2278202AF7D1641CE3
:101B600000254554002105E00B460344491CC9B239
:101B70001A75641C22780A2AF6D101440D75456253
:101B8000056270BD2DE9F0419AB006460C46002C66
:101B900009D00322B7A120460AF0D2FA90B1012061
:101BA0001AB0BDE8F0810120FAE7FFF7C6FF05464D
:101BB000CDB105F1140130460BF039FF70B1284664
:101BC00002F0D0FCA7682246642101A80BF0D1FCEA
:101BD000D4F808800028E8D1012605E00026284630
:101BE00002F0C0FC00E001265EB11DE0D4F80880E0
:101BF000394620460AF0BEFD294620460BF039FD45
:101C0000A768414620460AF0B5FD2246642101A896
:101C10000BF0AFFC0546002DE8D1394620460AF00E
:101C2000A9FD20460AF0A4FF20460AF090FD3046A8
:101C3000B6E770B505460C46002C07D002228DA1F0
:101C400020460AF07DFA18B1012070BD012070BD58
:101C50002046E1680AF08EFD2A4697A120460BF047
:101C600008FD20460AF073FD002070BD70B59AB0E3
:101C700006460D460024002D08D001227DA12846ED
:101C80000AF05EFA90B100201AB070BD0020FBE7A8
:101C9000FFF753FF044684B104F1140130460BF002
:101CA000C6FE50B1204602F05DFC00242A466421A5
:101CB00001A80BF05EFC0028EAD128460AF047FD97
:101CC0002046E1E770B59AB0064600250024002EB4
:101CD00007D0012267A130460AF032FA50B1002045
:101CE000D2E70020D0E7FFF728FF50B175B160625E
:101CF0000462646A3246642101A80BF03AFC0028B1
:101D0000F1D130460AF023FD2846BDE705462C46B2
:101D1000F0E730B589B004460D46012243A12846BC
:101D20000AF00EFA10B1012009B030BD2A461E217A
:101D300001A80BF01EFC78B10BF072FE01A908445B
:101D4000002100F8011C214601A80BF070FE08B12B
:101D5000022402E0002400E0022428460AF0F7FCF6
:101D60002046E1E770B504460D46002D07D003225A
:101D70002EA128460AF0E4F918B1012070BD012017
:101D800070BD28460AF0F4FE08B1012405E02246A1
:101D900049A128460BF06DFC002428460AF0D7FC28
:101DA000204670BDF0B589B007460E46002E08D01B
:101DB000012226A130460AF0C3F920B1012009B062
:101DC000F0BD0120FBE700250AE020460BF028FECD
:101DD000204400F8015C394601A80BF028FE48B108
:101DE00032461E2101A80BF0C4FB0446002CECD1A6
:101DF000022400E0002430460AF0A9FC2046DEE779
:101E00002DE9F04389B080460C46002C56D00322C1
:101E10000EA120460AF094F918B1012009B0BDE8DE
:101E2000F0834DE0313A0000DC920020313A6D61E0
:101E30006E616765725F70617373776F72642E7421
:101E4000787400003030303030300A00313A676545
:101E50006E6572616C5F70617373776F72642E74FC
:101E6000787400003131313131310A00323232328E
:101E700032320A00313A757365725F696E666F2E91
:101E800074787400D5C5C8FD203130300A000000D8
:101E9000C0EECBC4203130310A000000313A746505
:101EA0006D706F726172795F70617373776F726456
:101EB0002E7478740000000025730A000120ADE73D
:101EC0004FF00209A66822461E2101A80BF051FB23
:101ED0000546A7688DB328460BF0A2FD28440021D3
:101EE00000F8011C414601A80BF0A1FD0028E9D132
:101EF000B146394620460AF03DFC22461E2101A883
:101F00000BF037FB054655B1A768314620460AF06D
:101F100031FC294620460BF0ACFBA668E9E73146C8
:101F200020460AF027FC20460AF022FE49462046B9
:101F30000AF020FC4FF00009C4E7FFE720460AF052
:101F400006FC48466AE770B505460C46002C0FD0E3
:101F500021462846FFF726FF60B101280CD0022257
:101F6000AFF2181120460AF0EBF838B1012070BD2D
:101F7000012070BD022070BD012070BD2046E168C7
:101F80000AF0F8FB2A46AFF2D00120460BF071FBB5
:101F900020460AF0DCFB002070BD2DE9F04389B03B
:101FA00081460025B9F1000F08D00122AFF264117B
:101FB00048460AF0C5F818B100202FE700202DE7A9
:101FC00000271EE040460BF02BFD404400F8017C4A
:101FD00065B11C2002F048FA0646414630460BF037
:101FE00034FDB761A6617461A4690AE01C2002F0A7
:101FF0003BFA0546414628460BF027FDAF616F616D
:102000002C464A461E2101A80BF0B3FA80465FEA2F
:102010000800D7D148460AF09AFB2846FEE670B57C
:102020000446282002F020FA002130B10025057076
:10203000456205628561C56106E0002070BD0B4602
:10204000491CC9B2C254641C22783B2AF7D1641CD3
:10205000455402E030390175641C21783B29F9D1DF
:10206000641C6FF02F0307E0826902EB820203EB2E
:10207000420211448161641C21783B29F4D1641C23
:1020800007E0C26902EB820203EB42021144C16124
:10209000641C21780A29D1D00029F2D170BD2DE924
:1020A000F0438DB006460C46002C09D00322AFF257
:1020B000142120460AF044F880B101200DB0AEE6AC
:1020C0000120FBE7FFF7ABFF0546EDB3314628469D
:1020D0000BF0ADFC70B1284602F044FAA768224626
:1020E000322168460BF045FAD4F808800028E9D17F
:1020F000022638E0287D10BBB946414620460AF04A
:1021000039FB2246322168460BF033FA06465EB1AF
:10211000D4F80880394620460AF02CFB3146204688
:102120000BF0A7FAA768E8E7394620460AF022FB39
:1021300020460AF01DFD494620460AF01BFB00F030
:1021400012F9E969401A00E00CE0A969884204D25A
:102150000026284602F006FA05E00226284602F08C
:1021600001FA00E0012620460AF0F1FA3046A5E720
:102170002DE9F0438DB00446002C08D00322AFF2C5
:10218000E421204609F0DCFFA8B3012096E70120F6
:1021900094E7FFF744FF0646300038D000F0E3F83C
:1021A000F169401AB169884222D9B94641462046B0
:1021B0000AF0E0FA2246322168460BF0DAF90546C9
:1021C0005DB1D4F80880394620460AF0D3FA294692
:1021D00020460BF04EFAA768E8E7394620460AF099
:1021E000C9FA20460AF0C4FC494620460AF0C2FA61
:1021F000304602F0B7F9A7682246322168460BF054
:10220000B8F9D4F808800028C3D1002500E00125E2
:1022100020460AF09CFA284650E72DE9FC41074683
:10222000089C884615461E46002C09D00222AFF2B3
:102230009431204609F084FF20B10120BDE8FC81E3
:102240000120FBE72046E1680AF094FACDE9005648
:1022500043463A460DA120460BF00BFA20460AF001
:1022600076FA0020EAE710B506F083FB06F05BF98A
:102270004FF47A7002F092FDFFF7E2FB002803D1E1
:10228000BDE81040FFF7FDBB10BD000025733B25E6
:10229000643B25643B25640A0000000010B5012161
:1022A0004FF0C050FEF75CFD0120FEF7E1FBFEF7AA
:1022B00071F80120FEF7D3FC4120FEF755FC002801
:1022C000FAD04FF48070FEF7DFFC0120FEF7E1FC4E
:1022D000FEF7ECFDFEF7E4FD01210320FEF78CFD87
:1022E000FEF7DEFD47F6FF70FEF7B5FDBDE81040D6
:1022F000FEF7D6BD10B50446FFF7D0FFFEF7D0FDC0
:102300002046FEF79BFDBDE81040FEF7C9BD70B545
:1023100005460420FEF768F84AF2A554A04207D00B
:102320002846FFF7E7FF21460420FEF755F816E0A0
:1023300001214FF0C050FEF713FD0120FEF798FB7E
:102340007B20FEF711FC10B97A20FEF70DFCFEF79A
:10235000ADFD01210320FEF74FFDFEF7A1FDBDE815
:102360007040FEF728BD10B5FEF7A0FDBDE8104097
:10237000FEF75BBD10B50446FEF798FDFEF790FD35
:102380002046FEF75BFDBDE81040FEF789BD00006A
:1023900008B54FF4A060FDF7A1FF26208DF80000DE
:1023A00001208DF801008DF802008DF803006846C9
:1023B000FDF799FF08BD70B586B001210420FEF736
:1023C000C4FC01214804FEF7CBFC01210520FEF7E7
:1023D000BCFC01210420FEF7B8FCFFF7D9FF012067
:1023E000ADF8140004248DF81740FF4E05A93046BF
:1023F000FEF787F81021ADF814108DF8171003259B
:102400008DF8165005A93046FEF77BF810213046AE
:10241000FEF7E6F82020ADF8140005A93046FEF7D7
:1024200070F810213046FEF7DDF8ADF814401820A2
:102430008DF817008DF8165005A93046FEF761F8A3
:102440000820ADF814008DF8174005A93046FEF7B6
:1024500058F84FF4964001900020ADF80800ADF810
:102460000A00ADF80C00ADF810000C20ADF80E001D
:10247000DE4C01A92046FEF7EBFE012240F2255179
:102480002046FEF76CFF012240F224412046FEF771
:1024900066FF01212046FEF756FF06B070BD8AE7B1
:1024A00010B5D24C01462046FEF7AEFF80212046F3
:1024B000FFF717F80028F9D010BD70B505460E4695
:1024C000002404E0285DFFF7EBFF641CA4B2B442D3
:1024D000F8D370BD10B50121C348FEF76DF801288F
:1024E00001D0002010BD012010BD70B50646F520BA
:1024F000FFF7D6FF0920FFF7D3FF0020FFF7D0FF3B
:102500000020FFF7CDFF0020FFF7CAFF0020FFF7F4
:10251000C7FF0920FFF7C4FFF520FFF7C1FFB44D47
:1025200000202880002404E0322002F037FC641CE4
:10253000A4B2298809B9142CF6D32888082812D106
:10254000AC4844788378C17802795C4081EA02051E
:102550006C4045798079854201D1012000E000205E
:10256000844200D00AB1012070BD01EB032030800D
:10257000002070BD2DE9F04106460F46F520FFF71B
:102580008FFF4720FFF78CFF0020FFF789FF042013
:10259000FFF786FF0020FFF783FF0020FFF780FF93
:1025A0004320FFF77DFFF520FFF77AFFF520FFF7C7
:1025B00077FF0020FFF774FF0120FFF771FF002075
:1025C000FFF76EFF6420FFF76BFF6520FFF768FFE2
:1025D000F520FFF765FF864D00202880002404E0E9
:1025E000322002F0DBFB641CA4B2288808B9142C4A
:1025F000F6D32888082818D17E4844788278C17894
:10260000037954404B405C4043798579AB4201D11A
:10261000012300E000239C4207D001EB022131801E
:10262000007938700020BDE8F0810120FBE770B52B
:10263000F520FFF735FF2C20FFF732FF0020FFF7D2
:102640002FFF0020FFF72CFF0020FFF729FF0020BD
:10265000FFF726FF2C20FFF723FFF520FFF720FFD1
:10266000634D00202880002404E0322002F096FB15
:10267000641CA4B2288808B9142CF6D3288808282A
:1026800011D15C4842788178C3784A4001794B4047
:102690005A4043798079834201D1012000E0002033
:1026A000824200D009B1012070BD002070BD70B51C
:1026B0000446002C03D0012C01D0012070BDF52070
:1026C000FFF7EEFE2D20FFF7EBFE0020FFF7E8FE00
:1026D0002046FFF7E5FE0020FFF7E2FE0020FFF7AF
:1026E000DFFE84F02D00FFF7DBFEF520FFF7D8FEBC
:1026F0003F4D00202880002404E0322002F04EFBF1
:10270000641CA4B2288808B9142CF6D32888082899
:1027100011D1384842788178C3784A4001794B40DA
:102720005A4043798079834201D1012000E00020A2
:10273000824200D009B1012070BD002070BD70B58B
:102740000646F520FFF7ACFE2D20FFF7A9FE00207E
:10275000FFF7A6FE0020FFF7A3FE0120FFF7A0FE73
:102760000020FFF79DFE2C20FFF79AFEF520FFF7D3
:1027700097FE1F4D00202880002404E0322002F044
:102780000DFB641CA4B2298809B9142CF6D328883F
:10279000082812D117484378817802794B40C178D4
:1027A00081EA0204634044798079844201D10120A6
:1027B00000E00020834200D00AB1012070BD3170DA
:1027C000002070BD2DE9F041074690461E460D0AD7
:1027D000CCB2F520FFF764FE3846FFF761FE2846CD
:1027E000FFF75EFE204607E000080140004400407D
:1027F0005400002010A30020FFF752FE4046FFF7D0
:102800004FFE0020FFF74CFE87EA0500604080EA9B
:102810000800FFF745FEF520FFF742FEFC4D0020C3
:102820002880002404E0322002F0B8FA641CA4B22C
:10283000288808B9C82CF6D32888082813D1F54869
:1028400042788178C3784A4001794B405A404379B5
:102850008079834201D1012000E00020824202D031
:1028600031700020DFE60120DDE670B50E46040A77
:10287000C5B2F520FFF714FE0420FFF711FE204635
:10288000FFF70EFE2846FFF70BFE0020FFF708FEBD
:102890000020FFF705FE6C4084F00400FFF700FE07
:1028A000F520FFF7FDFDDA4D00202880002404E02C
:1028B000322002F073FA641CA4B2288808B9142CE0
:1028C000F6D32888082813D1D24842788178C37873
:1028D0004A4001794B405A4043798079834201D183
:1028E000012000E00020824202D03170002070BD43
:1028F000012070BD70B50646F520FFF7D1FD05201B
:10290000FFF7CEFD0020FFF7CBFD0020FFF7C8FD4D
:102910000020FFF7C5FD0020FFF7C2FD0520FFF7EF
:10292000BFFDF520FFF7BCFDB94D00202880002435
:1029300004E0322002F032FA641CA4B2298809B9FA
:10294000142CF6D32888082813D1B248427881780D
:10295000C3784A4001794B405A4043798079834299
:1029600001D1012000E00020824202D0317000201D
:1029700070BD012070BD70B50E46040AC5B2F520C9
:10298000FFF78EFD0B20FFF78BFD2046FFF788FD3C
:102990002846FFF785FD0020FFF782FD0020FFF7A6
:1029A0007FFD6C4084F00B00FFF77AFDF520FFF708
:1029B00077FD974D00202880002404E0322002F0AB
:1029C000EDF9641CA4B2288808B9142CF6D3288821
:1029D000082813D18F4842788178C3784A4001791A
:1029E0004B405A4043798079834201D1012000E075
:1029F0000020824202D03170002070BD012070BDE5
:102A00002DE9F04106460F46F520FFF749FD0C2061
:102A1000FFF746FD0020FFF743FD0020FFF740FDD4
:102A20000020FFF73DFD0020FFF73AFD0C20FFF7E7
:102A300037FDF520FFF734FD754D00202880002478
:102A400004E0322002F0AAF9641CA4B2288808B974
:102A5000282CF6D32888082818D16E484378817826
:102A6000C2784B40017984794A4053404279A2426E
:102A700001D1012200E00022934207D03970C178D1
:102A8000807801EB002030800020CCE50120CAE5F1
:102A900070B50E46F520FFF703FD0A20FFF700FD95
:102AA0000020FFF7FDFC0020FFF7FAFC0020FFF7F5
:102AB000F7FC0020FFF7F4FC0A20FFF7F1FCF520FB
:102AC000FFF7EEFC524D00202880002404E0322065
:102AD00002F064F9641CA4B2288808B90A2CF6D361
:102AE0002888082813D14B4842788178C3784A4017
:102AF00001794B405A4043798079834201D10120CA
:102B000000E00020824202D03170002070BD012020
:102B100070BD2DE9F04781460D461646F520FFF7BA
:102B2000BFFC2B20FFF7BCFC0020FFF7B9FC002006
:102B3000FFF7B6FC0020FFF7B3FC0020FFF7B0FC66
:102B40002B20FFF7ADFCF520FFF7AAFC304F4FF02C
:102B50000008A7F80080002404E0322002F01EF9EB
:102B6000641CA4B2388808B9282CF6D33888082801
:102B70002BD32848017989F80010398808290CD00E
:102B8000817A407A01EB002080B22880800001F039
:102B90006BFC00241F4B0B3311E0A5F800800020D4
:102BA000BDE8F08759781A7801EB022120F824104B
:102BB00000EB840299789170DB1C641CA4B2298814
:102BC000A142EFD830600020EAE70120E8E770B5C5
:102BD00004460E46F520FFF763FC2820FFF760FC53
:102BE0000020FFF75DFC2046FFF75AFC0020FFF7AE
:102BF00057FC0020FFF754FC84F02800FFF750FC3E
:102C0000F520FFF74DFC024D00202880002408E04D
:102C10005400002010A30020322002F0BFF8641CF2
:102C2000A4B2288808B90A2CF6D32888082813D11A
:102C3000464842788178C3784A4001794B405A40EF
:102C400043798079834201D1012000E00020824253
:102C500002D03170002070BD012070BD2DE9F0411F
:102C600006460F46F520FFF71BFC2820FFF718FC4F
:102C70000020FFF715FC0020FFF712FC0120FFF7F2
:102C80000FFC0020FFF70CFC2920FFF709FCF520C2
:102C9000FFF706FC2E4D00202880002404E032209F
:102CA00002F07CF8641CA4B2288808B90A2CF6D378
:102CB0002888082815D1254843788178C2784B4068
:102CC000017984794A4053404279A24201D10122DC
:102CD00000E00022934204D03970C07830700020A8
:102CE000A1E401209FE470B51A4C40F22551204622
:102CF000FEF702FC154D164E38B12046FEF788FB54
:102D000071884A1C7280685470BD40F2244120468C
:102D1000FEF7F2FB0128F7D12046FEF779FB708819
:102D200030800DA001F067FA002405E0295D0DA0B8
:102D300001F061FA641CE4B270888442F6D33188F1
:102D400009A001F058FA0020708070BD10A3002087
:102D500054000020004400400A0A6261636B3A0A92
:102D600000000000257820000A627566666C656EBA
:102D7000203D2025640A000038B501214020FDF7E0
:102D8000E4FF4FF48074ADF8004010208DF803008C
:102D900003208DF802001C4D69462846FDF7B1FB63
:102DA00021462846FDF71CFC21462846FDF718FC65
:102DB00038BD08B5154C4FF0FF374FF48075124EF3
:102DC0004FF47A7842F2107915E03B4601226946C9
:102DD000206800F067FE70B99DF8000001280AD154
:102DE00029463046FDF7FEFB404601F0D7FF294655
:102DF0003046FDF7F5FB4B4601226946206800F09E
:102E000051FE0028F7D0E0E70018014050000020F4
:102E1000704718480068704710B5044602F094F9EE
:102E200014490C60BDE8104002F092B910B5114988
:102E30000868401C086001F0ACFE016D491E016588
:102E400019B9C16C016501F03EFFBDE8104002F008
:102E50001AB9002802DA4FF0FF30704700EB40014A
:102E6000C1EBC01040F2E73101EBC000491C90FB00
:102E7000F1F0704758000020002070470020704794
:102E8000002070470020704770B5234C234D02E0AE
:102E900020688047241DAC42FAD370BD70B51F4C2A
:102EA0001F4D02E020688047241DAC42FAD370BD5C
:102EB00010B5FFF7F3FFBDE81040FEF7BFBB1CB530
:102EC00014200221CDE9001040F68A430022AFF21F
:102ED0001F0114A001F0B4FEBDE81C4001F07ABE51
:102EE00010B502F031F9FEF73DFB01F093F902F065
:102EF000FFF801F0F7FCFFF7E2FF02F003F900F042
:102F000054F801F005FD002010BD10B502F01CF9C9
:102F1000FFF7E6FF002010BD6CC1070870C107086D
:102F200074C107086D61696E0000000070B528E08B
:102F300002F00AF9064600F052F870B32C48046813
:102F4000A4F11C05D4E900104860D4E90001086030
:102F50006460246001F066FDD5F8881009B1284648
:102F60008847284601F080FC01280FD001F065FD5C
:102F7000304602F0EDF8286B01F0F4FA284601F033
:102F800062FC00F02CF80028D2D170BD01F055FD94
:102F90003046BDE8704002F0DBB83046BDE8704016
:102FA00002F0D6B8FFF7C2FFFCE71FB52020C20031
:102FB0000721104BCDE90210CDE900320D48002366
:102FC0000D4A0EA1903801F0C8FD04B00948BDE8D3
:102FD0001040903801F0FEBD064890387047044814
:102FE0000168814201D00120704700207047000035
:102FF00008010020A0B70020A52F00087469646CA8
:10300000650000002DE9F04105460E4614463046A5
:1030100001F085FE06F11C0714B1012C1DD104E05E
:103020003946284600F0DAFD17E02C680DE0A4F1DF
:103030001C0096F83D1090F83D20914204D239468C
:103040001C3000F0CBFD02E02468AC42EFD1AC4272
:1030500003D13946284600F0C1FD0020BDE8F081CB
:1030600070B505464FF0FF340AE002F06DF80646F1
:1030700028681C38846301F08FFD304602F068F840
:10308000284600F0B2FD0028EFD0002070BD2DE9E9
:10309000F041054616461F460A460121284601F022
:1030A00081FB2C461C3464602460AE846F74002065
:1030B000D4E710B5044604F11C00FFF7D1FF204609
:1030C00001F08EFB002010BD70B50C461546014680
:1030D000012001F093FB002805D000F11C0149609C
:1030E00009608484457470BD10B5044604F11C0069
:1030F000FFF7B6FF204601F0A6FB002010BD73B518
:10310000044602F021F80646A08C28B1401EA08497
:10311000304602F01DF821E0019808B301F039FDB6
:1031200005460020A863627C294604F11C00FFF7D5
:1031300069FF0198002809DD05F1540001AA00216A
:10314000044601F086FF204601F005FF304601F0FD
:10315000FFFF01F0EDFBA86B002800D100207CBD33
:10316000304601F0F5FF6FF001007CBD0021C6E79D
:103170002DE9F0410446002501F0E6FF064604F182
:103180001C00074600F031FD40B1A08C401CA0841B
:10319000304601F0DDFF012D05D006E0384600F095
:1031A0002BFD0125F4E701F0C3FB002056E770B5C5
:1031B00005461446012902D04FF0FF3070BD01F0E2
:1031C000C3FF064605F11C00FFF74AFFAC843046FA
:1031D00001F0BEFF01F0ACFB002070BD70B50446ED
:1031E00015460A460221204601F0DCFA20461C3032
:1031F000406000600120A0840020A062FF2184F8CC
:10320000261084F82700657470BD10B5044604F1DB
:103210001C00FFF725FF204601F0E2FA002010BD58
:1032200010B50C460146022001F0E8FA00280DD046
:1032300000F11C0149600960012181840021816243
:10324000FF2280F8262080F82710447410BD10B5A6
:10325000044604F11C00FFF703FF204601F0F3FAD7
:10326000002010BD2DE9F341044601F092FC054613
:1032700001F06AFF06460020A863A06AA84204D1B4
:1032800014F8270F401C207045E0A08C58B134F88A
:10329000240F401E2080656095F83D00A070E07806
:1032A000401CE07037E0019850B3A06A95F83D10DB
:1032B00090F83D20914204D205F13D02022101F037
:1032C0006EFD627C294604F11C00FFF79BFE01980D
:1032D000002809DD05F1540001AA0021074601F08C
:1032E000B8FE384601F037FE304601F031FF01F0FC
:1032F0001FFBA86B60B10930C7D0A86BBDE8FC818B
:103300006FF00104AC63304601F022FF2046F5E780
:1033100001F01AFF0646304601F01AFF0020EDE7E3
:103320002DE9F0410446002501F033FC064601F08A
:103330000BFF0746A06AB04206D06C1EB463384645
:1033400001F006FF204689E694F82710491EC9B20D
:1033500084F82710C1B994F8261090F83D209142C6
:1033600004D004F12602022101F019FD04F11C0031
:10337000064600F03AFC68B1A08C401CA0840020F6
:10338000A062FF2084F82600384601F0E1FE012DFE
:103390000FD010E054F81C0F1C38E06090F83D008E
:1033A000A072E07A401CE072304600F025FC012556
:1033B000EAE701F0BDFA002050E64FF0FF30704719
:1033C00070B5054614460A460321284601F0EAF97D
:1033D0006C742C461C34646024600020686270BDEC
:1033E00010B5044604F11C00FFF73AFE204601F038
:1033F000F7F9002010BD10B50C460146032001F07E
:10340000FDF9002806D0447400F11C0149600960F0
:103410000021416210BD10B5044604F11C00FFF705
:103420001FFE204601F00FFA002010BD2DE9F047E5
:1034300004460D464FF0FF38002D0DD0002701F057
:1034400083FE8246606A2843606204F11C00814664
:1034500000F0CBFB18B128E04046BDE8F087E569F5
:1034600021E0A5F11C00464690F84810CA0705D097
:10347000416C626A914309D1002607E0890705D5AE
:10348000416C626A114001D0416400262D6856B932
:1034900090F84810490703D5616A426C9143616214
:1034A00001F07AFB01274D45DBD1504601F050FE7B
:1034B000012F01D101F03CFA0020CEE72DE9FF47B2
:1034C0000546DDF830900E4690464FF0FF30002E56
:1034D00046D0074601F05DFB04460020A06301F0E2
:1034E00033FE82465FEAC87005D0686A36EA00009B
:1034F00008D1002706E05FEA887003D5686A304289
:1035000000D0002777B30398D0B3666484F848806E
:103510006A7C214605F11C00FFF774FD0398002822
:1035200009DD04F1540003AA0021054601F091FDD4
:10353000284601F010FD504601F00AFE01F0F8F9AE
:10354000A06B00280CD101F0FFFD8246B9F1000FFD
:1035500002D0606CC9F80000504601F0F9FDA06B84
:1035600004B07AE7B9F1000F03D0686A3040C9F8B7
:1035700000005FEA4870EFD5686AB0436862EBE725
:10358000FFE76FF00100A063E6E770B5044601298C
:1035900002D04FF0FF3070BD01F0D6FD054604F1BA
:1035A0001C00FFF75DFD00206062284601F0D0FDA1
:1035B00001F0BEF9002070BD2DE9F0410446069FE0
:1035C00016461D460A460421204601F0EBF86774B2
:1035D00020461C30406000606662258500206085C2
:1035E000A085E08530346460246037E510B504467A
:1035F00004F11C00FFF734FD04F13000FFF730FD4B
:10360000204601F0EDF8002010BD70B50D461646BD
:103610000146042001F0F2F80446200014D066743C
:103620001C3040600060A8B22085800000F01CFFC4
:10363000606258B100206085A085E08504F130000B
:1036400040600060204670BD204670BD204601F0FD
:10365000FAF8002070BD10B5044604F11C00FFF715
:10366000FFFC04F13000FFF7FBFC606A00F07AFF1A
:10367000204601F0E8F8002010BD2DE9F74F044680
:103680008B46002601F085FA054601F05DFD804677
:10369000608D218D6FF0020A884201D1029808B135
:1036A00000273BE0404601F053FD5046BDE8FE8F49
:1036B000AF630298F0B1627C294604F13000FFF755
:1036C000A1FC029800280CDDFFF7A3FB064605F1DC
:1036D000540002AA0021814601F0BBFC484601F0DB
:1036E0003AFC404601F034FD01F022F9A86B30B1FC
:1036F000A86BDBE7404601F02BFD5046D6E701F012
:1037000023FD80460298002808DDFFF782FB861B18
:103710000298801B0290002800DA0297608D218DAC
:103720008842C5D0A18D606A40F821B0A08D401CB0
:1037300080B2A085218D884200D3A785608D401C72
:10374000608504F11C00044600F04FFA20B14046A9
:1037500001F0FEFC0020A9E7204600F04DFA4046AB
:1037600001F0F6FC01F0E4F800209FE7002284E776
:103770002DE9F74F04468B46002601F00AFA05466C
:1037800001F0E2FC8046608D6FF0010A08B90298F2
:1037900008B100273CE0404601F0DAFC504685E7DE
:1037A000AF630298F0B1627C294604F11C00FFF778
:1037B00029FC029800280CDDFFF72BFB064605F1DB
:1037C000540002AA0021814601F043FC484601F062
:1037D000C2FB404601F0BCFC01F0AAF8A86B40B166
:1037E000A86B63E7404601F0B3FC5046C5F838A02B
:1037F0005CE701F0A9FC80460298002808DDFFF78D
:1038000008FB861B0298801B0290002800DA0297B2
:10381000608D0028C4D0E18D606A50F82100CBF89B
:103820000000E08D401C80B2E085218D884200D3ED
:10383000E785608D401E608504F13000044600F08D
:10384000D4F920B1404601F083FC00202EE7204649
:1038500000F0D2F9404601F07BFC01F069F800204D
:1038600024E770B50446012902D04FF0FF3070BD47
:1038700001F06AFC054604F11C00FFF7F1FB04F1BE
:103880003000FFF7EDFB00206085A085E08528462D
:1038900001F05EFC01F04CF8002070BD2DE9F04114
:1038A0000446DDE9066817461D460A4605212046FE
:1038B00000F078FF84F8118020461C3040600060E2
:1038C0006762ED1C4FF6FC70054025852D1DB6FB8B
:1038D000F5F06085002222636263A263002008E0A5
:1038E000218D636A091D00FB0131A36B0B60A1638D
:1038F000401C618D8142F3DCA285002056E410B5A6
:10390000044604F11C00FFF7ABFB204600F068FF03
:10391000002010BD10B5044604F11C00FFF7A0FB09
:10392000606A00F01FFE204600F08DFF002010BDF1
:103930002DE9F0410D4616461F460146052000F0D0
:103940005DFF0446200016D067741C3040600060A4
:10395000ED1C4FF6FC7005402585B0B260852D1D2D
:10396000684300F081FD606238B100222263626327
:10397000A26300200FE0204618E42046FFF7CAFFAC
:10398000002013E4218D636A091D00FB0131A36B44
:103990000B60A163401C618D8142F3DCA28520464F
:1039A00004E42DE9F04104460F461646208DB0424E
:1039B00002D24FF0FF30C6E401F0C6FBA56BA5B103
:1039C0002968A16301F0C4FB002028603246394613
:1039D000281D00F069F901F0B7FB0646606B00B1E5
:1039E00005606563206B28B105E001F0B1FB6FF065
:1039F0000200A8E42563A08D401CA08504F11C00F2
:103A0000044600F0F2F820B1304601F0A1FB00209E
:103A100099E4204600F0F0F8304601F099FB00F000
:103A200087FF00208FE42DE9F04104460F4616463B
:103A3000208DB04202D24FF0FF3084E401F084FBCD
:103A4000A56B8DB12968A16301F082FB324639462E
:103A5000281D00F029F901F077FB0646206B28604D
:103A60002563606B28B105E001F072FB6FF0020086
:103A700069E46563A08D401CA08504F11C00044628
:103A800000F0B3F820B1304601F062FB00205AE4A8
:103A9000204600F0B1F8304601F05AFB00F048FF34
:103AA000002050E42DE9FF5F04469146002601F016
:103AB00070F8054601F048FB0746A08D6FF0010B3A
:103AC00008B9039810B14FF0000840E0384601F003
:103AD0003FFB584604B0BDE8F09FC5F83880039816
:103AE000F0B1627C294604F11C00FFF78BFA0398C1
:103AF00000280CDDFFF78DF9064605F1540003AAF6
:103B00000021824601F0A5FA504601F024FA384619
:103B100001F01EFB00F00CFFA86B40B1A86BD9E7C9
:103B2000384601F015FB5846C5F838B0D2E701F029
:103B30000BFB07460398002809DDFFF76AF9861B8F
:103B40000398801B0390002801DACDF80C80A08D2B
:103B50000028C2D0256B28682063606BA84201D181
:103B6000C4F83480A08D401EA085384601F0F0FADC
:103B7000208D484500D281464A46291D019800F013
:103B800093F801F0E1FAA16B2960A56301F0E0FA76
:103B900000209FE770B50446012902D04FF0FF30A6
:103BA00070BD01F0D1FA054604F11C00FFF758FA88
:103BB000002108E002682263626B824200D16163E7
:103BC000A26B0260A063206B0028F3D1A185284678
:103BD00001F0BEFA00F0ACFE002070BD426811603A
:103BE00042684A604160086070470168814201D1C3
:103BF000012070470020704710B500681C3800F0A5
:103C0000CBFF002010BD000010B501F09DFA0B4A5B
:103C10001178491C1170BDE8104001F099BA10B537
:103C200001F092FA054A1178491E1170BDE8104062
:103C300001F08EBA01480078704700005C00002057
:103C400010B5FFF7F7FFF84C08B1206810BD00F081
:103C5000A0FF08B1806B10BD206810BD70B5044690
:103C6000FFF7E8FFF04D08B12C6070BD00F091FF48
:103C700008B1846370BD2C6070BD10B5FFF7DAFF2A
:103C800008B1E94810BD00F084FF08B1383010BD1C
:103C9000E54810BD10B50346C9B201E003F8011BA9
:103CA000521E541CFAD110BD30B5034618468B4243
:103CB00007D98C189C4204D307E011F8014B03F894
:103CC000014B521E541CF8D130BD002AFCD08C1878
:103CD0009D1814F8014C05F8014C521E002AF6D12B
:103CE00030BD10B503461846814210D28C189C4254
:103CF0000DD9991803E014F8013D01F8013D521E59
:103D0000531CF8D110BD11F8014B03F8014B521EA2
:103D1000541CF8D110BD10B5002306E003780C78D0
:103D20001B1B04D1401C491C521E002AF6D1184608
:103D300010BD014600E0491C0A78002AFBD1081A90
:103D40007047F0B506460F463846FFF7F2FF0546C6
:103D5000280004D03046FFF7ECFF044609E0304667
:103D6000F0BD641E2A4639463046FFF7D4FF20B125
:103D7000761CAC42F5DA0020F0BD3046F0BD10B53F
:103D800010F8012B11F8013BA2F14104192C00D8C5
:103D90002032A3F14104192C00D820339A4201D1DA
:103DA000002AEDD1D01A10BD10B5002A07D0034665
:103DB00011F8014B03F8014B14B1521EF8D110BD9C
:103DC000002101E003F8011B521EFBD110BD10B50C
:103DD000002308E011F8013B0478E31A5BB223B931
:103DE000401C14B1521E002AF4D1184610BD01E047
:103DF000401C491C027812B10B789A42F8D0007826
:103E00000978401A7047024600E0521C137813B13B
:103E1000131A8B42F9D3101A704770B50646304614
:103E2000FFF787FF451C284600F01EFB044634B10F
:103E30002A4631462046FFF737FF204670BD002056
:103E400070BD70472DE9FF4FDDE90DB60F9D6C0683
:103E500002D5DFF8D8A103E0DFF8D0A1AAF1110A5A
:103E6000EC0601D525F00105EC0702D04FF0300932
:103E700001E04FF020090027AC070BD5002A02DA39
:103E80002D27524206E06C0701D52B2702E02C07B4
:103E900000D520270024EE467AB9302201248DF87F
:103EA00000200CE00A2B15D002F00F081209A446DE
:103EB0001AF80880641C0EF80C80002AF2D1B44273
:103EC00000DD2646ABEB060215F0110F4FF0200384
:103ED00009D016E04FF00A0CB2FBFCF80CFB1828D6
:103EE000B2FBFCF2E3E73FB1002A05DD521E03E01E
:103EF000884200D80370401CB2F1000CA2F101020C
:103F0000F6DC27B1884201D80770521E401CED062E
:103F100005D508E0884201D880F80090401C151EA5
:103F2000A2F10102F6DC302703E0884200D80770D6
:103F3000401C3546761EA542F7DC05E0884202D8D3
:103F40001EF804500570401C251EA4F10104F5DC88
:103F500003E0884200D80370401C141EA2F1010245
:103F6000F7DC04B0BDE8F08F2DE9FF4F83B0824647
:103F70000AEB01077F1E5446A74201D24FF0FF37DC
:103F80004FF020094FF0250B17E1252804D0BC4243
:103F900000D82070641C0DE100250599491C05918D
:103FA00008782D2814D02B2815D0202816D02328A7
:103FB00017D0302818D04FF0FF384646059A1278AF
:103FC000303A0A2A13D205A800F093F906461AE0FF
:103FD00045F01005E1E745F00405DEE745F008058A
:103FE000DBE745F02005D8E745F00105D5E72A28AD
:103FF00009D1491C0591069840C80690002E02DAA6
:10400000764245F01005059801782E291DD1401CF7
:1040100005900178A1F130020A2A09D205A800F022
:1040200068F980460CE000006000002005F80008F8
:104030002A2905D1401C0590069850F8048B06905B
:10404000B8F1000F01DA4FF000080021059A10784E
:10405000682801D06C2802D10146521C05920A231F
:10406000059800786F2871D00CDC632820D004DC20
:1040700025286CD058280DD187E0642801D0692804
:1040800008D186E0702863D073282FD0752871D0AE
:1040900078287CD0BC4201D884F800B0641C059913
:1040A0000878002868D0BC4200D82070641C81E0E9
:1040B000E80605D507E0BC4201D884F80090641CEE
:1040C000761E002EF7DC069810F8041B0690C8B286
:1040D000BC4200D82070641C04E0BC4201D884F8C3
:1040E0000090641C761E002EF7DC63E0069808C87A
:1040F000069003B989A31846FFF71BFEB8F1000F1D
:1041000002DD404500DD4046E90605D508E0BC4239
:1041100001D884F80090641C3146761E8142F6DC9A
:10412000002106E0BC4201D81A782270641C5B1C96
:10413000491C8142F6DB04E0BC4201D884F80090BF
:10414000641C3146761E8142F6DC33E01BE014E04D
:10415000701C02D1082645F00105CDE900680698DB
:104160000295102304C8069039462046FFF76AFEE0
:1041700004461FE00FE00AE028E0BC4201D884F8C2
:1041800000B0641C16E0082305E045F0400510234C
:1041900001E045F002056C291BD068291DD0069866
:1041A00004C80690CDE90068394620460295FFF71D
:1041B00049FE04460598401C0590059800780028A3
:1041C0007FF4E3AEBC4211D8207010E0491E059187
:1041D000F0E7069804C80690E4E7069830F8041B58
:1041E00006908AB2A807DDD512B2DBE73870A4EBDF
:1041F0000A0007B0B6E60FB408B503AB00937F2101
:104200004848029AFFF7B0FE4648FDF7E8F901B0CA
:104210005DF814FB08B544A0FFF7EDFF45A0FFF7DC
:10422000EAFF4DA003230090002219464DA0FFF79E
:10423000E2FFBDE8084053A0DDE70FB410B505ABC1
:10424000049AFFF791FE10BC5DF814FB17B40A4600
:10425000029B03B04FF0FF3110BC85E60FB410B5E0
:1042600004AA0399FFF7F2FFEDE710B5002801D08B
:10427000FDF7B5F910BD10B5C91C21F00304C01C31
:1042800020F00300204400F0EFF800280BD0611E5E
:10429000084201D1011903E00219521E22EA01016C
:1042A00041F8040C084610BD50F8040C00F05AB94F
:1042B000002807D03E4910F0FF0F05D0C0B2085CBF
:1042C000401C70470020704710F47F4F04D0C0F3AB
:1042D0000720085C0930704710F47F0F04D0C0F34A
:1042E0000740085C1130704701EB1060007819300E
:1042F000704710B5024600206FF02F0407E04B1CFA
:104300001360097800EB800004EB4000084411685A
:104310000B78303B0A2BF2D310BD0000284E554CD1
:104320004C290000A0B800200A205C207C202F0A25
:10433000000000002D205254202D20202020205449
:104340006872656164204F7065726174696E672080
:1043500053797374656D0A004F63742020392032DD
:1043600030323000202F207C205C2020202020258F
:10437000642E25642E2564206275696C6420257383
:104380000A0000002032303036202D203230313803
:1043900020436F7079726967687420627920727443
:1043A0002D746872656164207465616D0A00000097
:1043B000F4F6000830B5CD4C41682268114402F192
:1043C000080388420DD04D885DB96568A94208D0C0
:1043D000A5688D4200D1A0604D6845604968851A86
:1043E000CD508168114481420BD04D88002D08D1F9
:1043F000A568854200D1A16044684C604068891A74
:10440000C15030BD70B505460A46E81C20F00301D6
:1044100022F00303182B21D9A3F118048C421DD3D9
:10442000B24C5A1A183AE26021604FF4F5530B80EF
:104430000C324A6000208860488048680844606008
:104440000380012141804260826000230122A8A1F3
:10445000A948FEF71CFE2068A06070BD2946BDE893
:104460007040A6A0FFF7C7BE2DE9F047002809D08D
:10447000C01C20F003059D4EF068854204D9002041
:10448000BDE8F0870020FBE70C2D00D20C254FF093
:10449000FF319948FEF733FEB7683168781AD6F8CD
:1044A0000CC0ACEB050356E00C1862888ABB62684E
:1044B000121A0C3AAA424DD3626805F11803121A77
:1044C0000C3A4FF001094FF4F5589A4222D34319A0
:1044D0000C33CA18A2F800804FF0000AA2F802A01C
:1044E000D4F804A0C2F804A090606360A4F802901D
:1044F00050680CF10C0C604502D001F108028350A9
:10450000306928440C303061726982420ED2706189
:104510000CE01FE0A4F802906068621A801A326909
:10452000104430617269824200D27061A4F8008048
:10453000BC4203D008E040680844B060B0684288DC
:1045400012B172689042F6D16B48FEF711FE04F189
:104550000C0095E760688342A6D86748FEF708FE1E
:1045600000208DE770B5002833D0604D296888425F
:104570002FD3696888422CD2A0F10C044FF0FF3190
:104580005D48FEF7BCFD60884FF4F55610B12088F9
:10459000B04208D068A0FFF72EFE2388628821462B
:1045A0006CA0FFF728FE002060802680A868844267
:1045B00000D2AC6029686068611A401A2969081A3B
:1045C00028612046FFF7F6FEBDE870404A48FEF736
:1045D000CFBD70BD2DE9F0410646C91C21F0030492
:1045E000424FF868844202D90020BDE8F08184B1CE
:1045F000A6B14FF0FF314048FEF781FD3A68964280
:1046000002D3786886420DD33B48FEF7B1FD3046B1
:10461000EBE73046FFF7A6FF0020E6E72046BDE8BF
:10462000F04121E7A6F10C01A1EB020C4868A0EBD8
:104630000C050C3DA54204D12F48FEF799FD3046EC
:10464000D3E704F11800A8421FD23B69281B181AAF
:1046500038610CEB04030C33D0184FF4F55404808C
:10466000002444804C684460C0F808C04B60FC687B
:1046700041680C34A14201D008328B50FFF79AFEFA
:104680001D48FEF775FD3046AFE71B48FEF770FD8D
:104690002046FFF7E9FE074657B1A54200D22C4657
:1046A000224631463846FFF7FFFA3046FFF75AFFF9
:1046B00038469AE770B548430446FFF7D5FE0546ED
:1046C00025B1224600212846FFF7E4FA284670BDAE
:1046D00010B5064B002801D0DC68046009B11869E8
:1046E0000860002A01D05869106010BD64000020E5
:1046F000686561700000000020B900206D656D20C4
:10470000696E69742C206572726F722062656769C8
:104710006E206164647265737320307825782C2074
:10472000616E6420656E64206164647265737320D9
:10473000307825780A000000746F20667265652065
:104740006120626164206461746120626C6F636BDC
:104750003A0A00006D656D3A203078253038782CA3
:10476000207573656420666C61673A2025642C208F
:104770006D6167696320636F64653A203078253026
:1047800034780A0070470021554A02EB01131B7868
:10479000834202D102EB01107047491C0829F4DB67
:1047A000002070472DE9F04104460D461746284683
:1047B000FFF7E9FF064645F08000207410223946D5
:1047C0002046FFF7F1FA00F0BFFC054604F11401A2
:1047D000301D00F075F82846BDE8F04100F0B8BC87
:1047E00070B5044600F0B0FC054604F1140000F07A
:1047F0006EF82846BDE8704000F0AABC2DE9F041F3
:1048000006460F463046FFF7BEFF0546E868FFF74D
:104810002BFE0446ACB12674002060741022394689
:104820002046FFF7C1FA00F08FFC064604F11401A0
:10483000281D00F045F8304600F08AFC2046BDE80F
:10484000F0810020FBE770B5044600F07DFC0546D2
:1048500004F1140000F03BF8284600F079FC2046F3
:10486000BDE87040FFF77EBE007C000601D5012048
:104870007047002070472DE9F04107460C46002F95
:1048800001D00B2C01D90020D9E700F0CBF820464D
:10489000FFF779FF4468051D08E0A4F11406102213
:1048A00039463046FFF793FA30B12468AC42F4D170
:1048B00000F0C3F80020C2E700F0BFF83046BEE7C2
:1048C0000268516002680A60016048607047D0E980
:1048D00000215160D0E90012116040600060704713
:1048E0007C00002010B5614B00245C800020604AF1
:1048F00002EBC00149600960401C0828F8DB072072
:1049000018705C609C6059480C304060006010BDBD
:1049100010B5564CA068FFF7CBFC401E544951F827
:1049200030001C386060BDE81040243000F041BC0D
:1049300070B500F009FC05464C4C608820B1284653
:10494000BDE8704000F004BCA068FFF7B1FC421E57
:10495000474850F832101C396068814216D02270E6
:104960006160444A127842B12431243000F0F3FBF4
:104970002846BDE8704000F0EBBB2431243000F045
:10498000EAFB2846BDE8704000F0E2BB2846BDE8DF
:10499000704000F0DDBB10B5044600F0D5FB0246C8
:1049A00014F83C0F20F00F00401C20706078304954
:1049B0003C3C01EBC00104F11C004B6818604B68E3
:1049C0004360486001602948216C83681943816015
:1049D000BDE81040104600F0BBBB70B5054600F0C6
:1049E000B3FB014605F11C04D4E900205060D4E972
:1049F000000210606460246095F83D001C4A02EBE0
:104A0000C0000268824201D1012000E0002020B1F4
:104A100016482B6C82689A438260BDE87040084655
:104A200000F096BB10B500F08FFB104A5188491C6E
:104A30005180BDE8104000F08BBB10B500F084FB46
:104A40000A4A5188491E09B25180002906DC00211A
:104A5000518000F07DFBBDE8104069E7BDE81040E3
:104A600000F076BB0148408880B27047FC0000200F
:104A700048B900205C00002070B5F948046800F0D7
:104A800063FB05462046FFF7A8FF042084F83C009E
:104A900004F1540000F028FA2046FFF7E5FE012853
:104AA00002D1D4F8880058B104F11C01ED4800F09F
:104AB000D0F9284600F04CFBBDE87040FFF738BF46
:104AC0002046FFF78DFEF4E710B504466FF00100B5
:104AD000A06304F11C0000F0C9F92046FFF75BFF5A
:104AE000BDE81040FFF724BF2DE9FC411F46DDE97A
:104AF0000A65DDE90831044604F11C0040600060ED
:104B000024346260A760E36021610A4623211846CD
:104B1000FFF7C0F8D4E903014218121FAFF2A70350
:104B2000D4E9010100F088FB2060A67666760020BB
:104B3000E061A562E562606120766066A066243C63
:104B400000902346AFF27F020190214604F1540009
:104B500000F0B5F90020BDE8FC812DE9FF5F81463A
:104B6000DDE90E76DDE91054884692469B464246C2
:104B700000214846FFF716FECDE90076CDE9025444
:104B80005B46524641464846FFF7AEFF04B0BDE8DB
:104B9000F09FB3480068704770B5044694F83C0035
:104BA00000F00F00022802D04FF0FF3070BD00F07F
:104BB000CBFA054604F11C0000F058F904F154004A
:104BC00000F030FA284600F0C3FA2046FFF7E3FE73
:104BD000002070BD10B53C308178417001228A40C0
:104BE0004260022100F83C19FFF7D6FFFFF7D1FF22
:104BF00008B1FFF79DFE002010BD70B5044694F883
:104C00003C00000702D02046FFF7E7FE04F1540005
:104C100000F06AF9042084F83C002046FFF7E0FD2C
:104C2000D4F8880050B100F08FFA054604F11C0159
:104C30008C4800F00EF9284600F08AFA002070BD7A
:104C40002DE9FF478046DDE90C67894692461D46FF
:104C500041460020FFF7D2FD044620000FD0284631
:104C6000FFF702FC68B18DE8E10053464A46414631
:104C70002046FFF739FF204604B0BDE8F08700204A
:104C8000FAE72046FFF7DFFD0020F5E770B50446A0
:104C900094F83C00000702D02046FFF79EFE04F186
:104CA000540000F021F9042084F83C0000F04CFA94
:104CB000054604F11C016B4800F0CBF8284600F0D3
:104CC00047FA002070BD70B500F03EFA0646644811
:104CD000046894F83C0000F00F0001281AD1D4E9D0
:104CE0000701884216D004F11C00054600F0BEF80A
:104CF00094F83D005C4901EBC00041680D604168DB
:104D0000696045602860304600F022FAFFF710FE27
:104D1000002070BD304600F01BFA002070BD70B559
:104D2000044694F83C0000F00F00012802D04FF038
:104D3000FF3070BD00F008FA054694F83C0020F002
:104D40000F00801C84F83C002046FFF746FE04F16B
:104D5000540000F067F9284600F0FAF9002070BD11
:104D6000F1B500F0F1F905463D4804682046FFF72B
:104D7000D6FF04F154006A460021064600F069F9A6
:104D8000304600F0E8F8284600F0E2F9FFF7D0FDE1
:104D9000A06B801C00D1A0630020F8BDE0E72DE9E6
:104DA000F04104461546002924D0012926D00229C5
:104DB00011D100F0C9F9074694F83C00012600F033
:104DC0000F0001280AD0287884F83D008640266428
:104DD000384600F0BDF90020BDE8F0812046FFF71D
:104DE000FCFD287884F83D00864026642046FFF7C5
:104DF000D2FDEDE72046BDE8F041EBE62046BDE8F8
:104E0000F04143E72DE9F0410746FFF7C2FE08B144
:104E1000FFF708FE0020FFF7B6FC4468051D08E018
:104E2000A4F11406102239463046FEF7D0FF48B1EF
:104E30002468AC42F4D1FFF7ACFE08B1FFF7FDFDEA
:104E40000020C9E7FFF7A5FE08B1FFF7F6FD3046E1
:104E5000C2E70268516002680A60016048607047FA
:104E6000000100200801002048B90020D0E90021FD
:104E70005160D0E90012116040600060EFE700006F
:104E800010B5029C24F00104447441628262002146
:104E90000163C36200EBC1021C3252601260491C04
:104EA0000129F7DB10BD10B50446204600F032F9A9
:104EB00010B14FF0FF3010BD2068406910BD2DE9E2
:104EC000F8430746DDE9088415461E460A460921CF
:104ED0003846FFF767FC4346324629463846009479
:104EE000FFF7CEFFBDE8F88370B5054600F02CF95A
:104EF0000446284600F015F9204600F029F9284616
:104F0000FFF76EFC002070BD2DE9F8430E46089DAA
:104F10001746984601460920FFF770FC044644B145
:104F200043463A46314620460095FFF7A9FF204602
:104F3000D8E70020D6E770B5054600F005F904462D
:104F4000284600F0EEF8204600F002F92846FFF768
:104F50007AFC002070BD2DE9F843044600F0F4F817
:104F60000546204600F0DDF8607C20F0010060740A
:104F7000284600F0EDF8FDF74CFFE16A0844206395
:104F800000F0E2F80746DFF8BCC1CDF800C000220F
:104F90006E460CEBC20045680DE00068A0EBC20154
:104FA000236B4969994204D0C91A6FF000439942B2
:104FB00005D346F8220056F82200A842EDD12AB1C6
:104FC00056F822100831531C46F82310521C002AB0
:104FD000DFD05C48001FD0F8008008F10108C0F85D
:104FE000008004F11C01009800F08DF802250EE00D
:104FF0005FEA88700DD1C5F1010004EBC0011C31DE
:1050000056F8200000F07FF84FEA98086D1C012D3B
:10501000EED9607C40F001006074384600F098F8EA
:1050200000205FE770B50446607CC0070ED000F03A
:105030008BF80546204600F074F8284600F088F802
:10504000607C20F001006074002070BD4FF0FF30E4
:1050500070BD002909D0012904D0022908D00329F4
:105060000FD10AE0C06A10600BE01168C16208E06D
:10507000417C21F00201417403E0417C41F00201D6
:1050800041740020704770B5FDF7C3FE064600F07E
:105090005BF8054620E02B4804681C3C6FF000419B
:1050A000206B301A88421CD2204600F03AF8D4E92E
:1050B00009108847FDF7ADFE0646607C810708D5DC
:1050C000C10706D020F0010060742046FFF743FFBF
:1050D00002E020F0010060741A4800F01BF800287C
:1050E000D9D02846BDE8704000F032B81548DAE65D
:1050F0000020144A02EBC00149600960401C0028EE
:10510000F8D0704770470268516002680A60016019
:10511000486070470168814201D10120704700203A
:10512000704710B5002200EBC2011C31D1E90043E9
:105130006360D1E90034236049600960521C012A90
:10514000F1DB10BD14010020EFF3108072B6704740
:1051500080F310887047324A1368012B04D04FF057
:10516000010313602F4A10602F4A11602F484FF03F
:10517000805101607047EFF3108272B628480168D1
:1051800091B14FF0000101602648016829B1EFF3A9
:10519000098121E9F00F0068016023490968096865
:1051A000B1E8F00F81F3098882F310884EF0040E05
:1051B00070471D4908601B494FF0000008601849FE
:1051C0004FF0010008601A484FF47F01D0F800202A
:1051D00041EA0201016015484FF080510160154815
:1051E0000068006880F3088861B662B670471EF0F8
:1051F000040F14BFEFF30880EFF3098020E9F00FEC
:1052000040F804ED14BF80F3088880F3098800B5E6
:1052100000F031F85DF804EB4EF0040E704700002A
:1052200028010020200100202401002004ED00E0DE
:1052300020ED00E008ED00E070B50646121D22F0FA
:105240000700A0F1400528460022394C40F82240D2
:10525000521C102AFAD30162002141628162C162AC
:105260000163436386634FF08071C163284670BD5C
:1052700030490860704770B505462C1D2D480168FF
:10528000002903D02846884700284DD02AA0E16B8A
:10529000FEF7B1FF2CA0216AFEF7ADFF2EA0616AD8
:1052A000FEF7A9FF30A0A16AFEF7A5FF32A0E16AD0
:1052B000FEF7A1FF34A02168FEF79DFF36A06168CC
:1052C000FEF799FF38A0A168FEF795FF3AA0E168C4
:1052D000FEF791FF3CA02169FEF78DFF3EA06169BA
:1052E000FEF789FF40A0A169FEF785FF42A0E169B2
:1052F000FEF781FF44A0216BFEF77DFF46A0616BA6
:10530000FEF779FF48A0A16BFEF775FF28784007EC
:1053100006D5FFF73EFC014647A0FEF76CFF02E012
:105320004DA0FEF768FFFEE770BD52A0FEF763BF19
:10533000EFBEADDE1C0100207073723A203078257C
:105340003038780A000000007230303A203078257A
:105350003038780A000000007230313A2030782569
:105360003038780A000000007230323A2030782558
:105370003038780A000000007230333A2030782547
:105380003038780A000000007230343A2030782536
:105390003038780A000000007230353A2030782525
:1053A0003038780A000000007230363A2030782514
:1053B0003038780A000000007230373A2030782503
:1053C0003038780A000000007230383A20307825F2
:1053D0003038780A000000007230393A20307825E1
:1053E0003038780A000000007231303A20307825D9
:1053F0003038780A000000007231313A20307825C8
:105400003038780A000000007231323A20307825B6
:105410003038780A00000000206C723A203078257D
:105420003038780A000000002070633A2030782578
:105430003038780A00000000686172642066617587
:105440006C74206F6E207468726561643A202573F5
:105450000D0A0D0A00000000686172642066617523
:105460006C74206F6E2068616E646C65720D0A0D3D
:105470000A00000073687574646F776E2E2E2E0A12
:105480000000000001784278027082784270C27891
:105490008270C170704730B5002305E0C45CCD5CFC
:1054A0006C40C4545B1CDBB29342F7D330BD102276
:1054B000F1E710B5002A01D0B24B00E0B24B002258
:1054C00004E0845C1C5D8454521CD2B28A42F8D33E
:1054D00010BDF8B501226C46002302EB8305455D43
:1054E000E5545B1CDBB2042BF7D311B1C2F104030A
:1054F00000E01346DDB200235E1906F0030602EB5E
:105500008307A65DC6555B1CDBB2042BF4D3521C8B
:10551000D2B2042AE0D3F8BD010602D44006000E40
:1055200070471B2181EA4000C0B27047F8B50446BD
:105530000E46002520786178E2784840A1785140F5
:1055400080EA0102FFF7E8FF2178504048408DF8DB
:1055500000006078A1784840FFF7DEFF6178504096
:1055600048408DF80100A078E1784840FFF7D4FF6B
:10557000A178504048408DF80200E07821784840FA
:10558000FFF7CAFFE178504048408DF8030056B35A
:105590002078A1784840FFF7BFFFFFF7BDFF024624
:1055A0006078E1784840FFF7B7FFFFF7B5FF0346A3
:1055B00082EA0300FFF7B0FF9DF8007080EA020165
:1055C0004F408DF800709DF80120584042408DF802
:1055D00001209DF802204A408DF802209DF803101A
:1055E00041408DF80310042269462046FEF75CFB1B
:1055F0006D1CEDB2241D042D9CD3F8BD70B506467C
:1056000062493046FFF753FF0124604D002210210C
:105610003046FFF74EFF00213046FFF75AFF0A2CB5
:1056200003D000213046FFF781FF05EB041130461F
:10563000FFF73DFF641CE4B20A2CE7D970BD2DE9E9
:10564000F041074651493846A031FFF730FF0A24A0
:105650004E4E01213846FFF73CFF0122102138460B
:10566000FFF727FF611E0D4606EB01113846FFF7D5
:105670001EFF012C03D001213846FFF757FFECB283
:10568000002CE6D1BDE8F08138B50C4640A1096890
:105690000091014610223D48FEF706FB2CB13B4825
:1056A00010222146B030FEF7FFFA384C10340425A2
:1056B0000422211F2046FEF7F7FAA80712D1204640
:1056C000FFF7E0FE002204212046FFF7F2FE04224D
:1056D00069462046FFF7DFFE9DF80000FFF71CFF3C
:1056E0008DF800000422A4F110012046FFF7D3FE3C
:1056F000241D6D1CEDB22C2DDAD338BD7FB50446C8
:105700000E46154621491022B0316846FEF7CCFA04
:10571000AC4204D0324621462846FEF7C5FA340989
:105720000AE02846FFF76AFF102229466846FEF77E
:10573000BBFA641EA4B21035002CF2D17FBD024624
:10574000DCE77FB506460C46154610491022B031FD
:105750006846FEF7A9FAB54204D0224631462846EB
:10576000FEF7A2FA2544103D240905E02846FFF77C
:1057700066FF641EA4B2103D002CF7D17FBD024627
:10578000DFE7000016F9000816F8000888B90020C5
:10579000010000002DE9F047002700253AE000262F
:1057A00008E04FEA042CC45D44EA0C047F1C3FB2BD
:1057B000761C76B2032E01DA8F42F2DB012E02D084
:1057C000022E03D101E0240400E02402ED1C2DB2DE
:1057D0004FF0000CDFF8A4924FF03D08032E07DADB
:1057E000A40902F805806D1E2DB2761C76B208E081
:1057F00004F03F0A19F80AA002F805A0A4096D1EDA
:105800002DB20CF1010C4FFA8CFCBCF1040FE5DB5E
:105810006D1D2DB28F42C2DB002050551D80BDE8AA
:10582000F0872DE9F047002700253AE0002608E040
:105830004FEA042CC45D44EA0C047F1C3FB2761C82
:1058400076B2032E01DA8F42F2DB012E02D0022E55
:1058500003D101E0240400E02402ED1C2DB24FF03E
:10586000000CDFF818924FF03D08032E07DAA40968
:1058700002F805806D1E2DB2761C76B208E004F0A9
:105880003F0A19F80AA002F805A0A4096D1E2DB25E
:105890000CF1010C4FFA8CFCBCF1040FE5DB6D1D23
:1058A0002DB28F42C2DB002050551D80B7E72DE995
:1058B000F0414FF0000C002767E0002500243FE096
:1058C00010F80C60A6F14108B8F1190F06D8A6012E
:1058D00008F03F0434436D1C6DB22DE0A6F1610861
:1058E000B8F1190F09D84FEA8418F61F06F03F04E3
:1058F00044EA08046D1C6DB21EE0A6F13008B8F150
:10590000090F09D84FEA8418361D06F03F0444EA0F
:1059100008046D1C6DB20FE02B2E02D02F2E06D086
:105920000AE0A40144F03E046D1C6DB204E0A40141
:1059300044F03F046D1C6DB20CF1010C0FFA8CFCAD
:10594000042D01DA8C45BBDB022D04D0032D07D0DA
:10595000042D1AD10CE02409D4557F1C3FB214E069
:10596000A408D5196C70240AD455BF1C3FB20CE0B2
:10597000BF1C3DB2002654556D1E2DB2240A761C64
:1059800076B2032EF7DB2D1D2FB28C4595DB002060
:10599000D0551F80BDE8F0812DE9F0414FF0000C9B
:1059A000002767E0002500243FE010F80C60A6F116
:1059B0004108B8F1190F06D8A60108F03F04344396
:1059C0006D1C6DB22DE0A6F16108B8F1190F09D870
:1059D0004FEA8418F61F06F03F0444EA08046D1CE1
:1059E0006DB21EE0A6F13008B8F1090F09D84FEAF0
:1059F0008418361D06F03F0444EA08046D1C6DB29D
:105A00000FE02B2E02D02F2E06D00AE0A40144F086
:105A10003E046D1C6DB204E0A40144F03F046D1C13
:105A20006DB20CF1010C0FFA8CFC042D01DA8C45DF
:105A3000BBDB022D04D0032D07D0042D1AD10CE0BE
:105A40002409D4557F1C3FB214E0A408D5196C700A
:105A5000240AD455BF1C3FB20CE0BF1C3DB2002647
:105A600054556D1E2DB2240A761C76B2032EF7DB38
:105A70002D1D2FB28C4595DB1F808BE716FA000891
:105A8000FE488068704770B504460D46002C01D072
:105A90002DB10AE00DB1012070BD002070BD0120C4
:105AA00070BD207898B1641C6D1C207807F066FFEB
:105AB0000646287807F062FF8642F2D0207807F089
:105AC0005DFF0446287807F059FF201A70BD0020BA
:105AD00070BD70B50646304607F0A2FF451CE74B87
